{
  "_format": "hh-sol-artifact-1",
  "contractName": "EscrowMirror",
  "sourceName": "static/contract/EscrowMirror.sol",
  "abi": [
    {
      "inputs": [
        {
          "internalType": "address",
          "name": "_usdt",
          "type": "address"
        }
      ],
      "stateMutability": "nonpayable",
      "type": "constructor"
    },
    {
      "inputs": [
        {
          "internalType": "address",
          "name": "owner",
          "type": "address"
        }
      ],
      "name": "OwnableInvalidOwner",
      "type": "error"
    },
    {
      "inputs": [
        {
          "internalType": "address",
          "name": "account",
          "type": "address"
        }
      ],
      "name": "OwnableUnauthorizedAccount",
      "type": "error"
    },
    {
      "anonymous": false,
      "inputs": [
        {
          "indexed": true,
          "internalType": "uint256",
          "name": "id",
          "type": "uint256"
        },
        {
          "indexed": false,
          "internalType": "address",
          "name": "seller",
          "type": "address"
        },
        {
          "indexed": false,
          "internalType": "uint256",
          "name": "amount",
          "type": "uint256"
        }
      ],
      "name": "FundsReleasedBNB",
      "type": "event"
    },
    {
      "anonymous": false,
      "inputs": [
        {
          "indexed": true,
          "internalType": "uint256",
          "name": "id",
          "type": "uint256"
        },
        {
          "indexed": false,
          "internalType": "uint256",
          "name": "ethId",
          "type": "uint256"
        },
        {
          "indexed": false,
          "internalType": "address",
          "name": "buyer",
          "type": "address"
        },
        {
          "indexed": false,
          "internalType": "address",
          "name": "seller",
          "type": "address"
        },
        {
          "indexed": false,
          "internalType": "uint256",
          "name": "amount",
          "type": "uint256"
        }
      ],
      "name": "MirrorInitialized",
      "type": "event"
    },
    {
      "anonymous": false,
      "inputs": [
        {
          "indexed": true,
          "internalType": "address",
          "name": "previousOwner",
          "type": "address"
        },
        {
          "indexed": true,
          "internalType": "address",
          "name": "newOwner",
          "type": "address"
        }
      ],
      "name": "OwnershipTransferred",
      "type": "event"
    },
    {
      "anonymous": false,
      "inputs": [
        {
          "indexed": true,
          "internalType": "uint256",
          "name": "id",
          "type": "uint256"
        },
        {
          "indexed": false,
          "internalType": "address",
          "name": "seller",
          "type": "address"
        }
      ],
      "name": "UserBConfirmed",
      "type": "event"
    },
    {
      "inputs": [
        {
          "internalType": "uint256",
          "name": "_id",
          "type": "uint256"
        }
      ],
      "name": "confirmUserB",
      "outputs": [],
      "stateMutability": "nonpayable",
      "type": "function"
    },
    {
      "inputs": [
        {
          "internalType": "uint256",
          "name": "amount",
          "type": "uint256"
        }
      ],
      "name": "depositLiquidity",
      "outputs": [],
      "stateMutability": "nonpayable",
      "type": "function"
    },
    {
      "inputs": [
        {
          "internalType": "uint256",
          "name": "",
          "type": "uint256"
        }
      ],
      "name": "escrows",
      "outputs": [
        {
          "internalType": "uint256",
          "name": "ethId",
          "type": "uint256"
        },
        {
          "internalType": "address",
          "name": "buyer",
          "type": "address"
        },
        {
          "internalType": "address",
          "name": "seller",
          "type": "address"
        },
        {
          "internalType": "address",
          "name": "agent",
          "type": "address"
        },
        {
          "internalType": "uint256",
          "name": "amount",
          "type": "uint256"
        },
        {
          "internalType": "string",
          "name": "ipfsHash",
          "type": "string"
        },
        {
          "internalType": "bool",
          "name": "confirmedByBNB",
          "type": "bool"
        },
        {
          "internalType": "bool",
          "name": "released",
          "type": "bool"
        }
      ],
      "stateMutability": "view",
      "type": "function"
    },
    {
      "inputs": [],
      "name": "nextEscrowId",
      "outputs": [
        {
          "internalType": "uint256",
          "name": "",
          "type": "uint256"
        }
      ],
      "stateMutability": "view",
      "type": "function"
    },
    {
      "inputs": [],
      "name": "owner",
      "outputs": [
        {
          "internalType": "address",
          "name": "",
          "type": "address"
        }
      ],
      "stateMutability": "view",
      "type": "function"
    },
    {
      "inputs": [],
      "name": "renounceOwnership",
      "outputs": [],
      "stateMutability": "nonpayable",
      "type": "function"
    },
    {
      "inputs": [
        {
          "internalType": "uint256",
          "name": "_ethId",
          "type": "uint256"
        },
        {
          "internalType": "address",
          "name": "_buyer",
          "type": "address"
        },
        {
          "internalType": "address",
          "name": "_seller",
          "type": "address"
        },
        {
          "internalType": "address",
          "name": "_agent",
          "type": "address"
        },
        {
          "internalType": "uint256",
          "name": "_amount",
          "type": "uint256"
        },
        {
          "internalType": "string",
          "name": "_ipfsHash",
          "type": "string"
        }
      ],
      "name": "syncFromETH",
      "outputs": [],
      "stateMutability": "nonpayable",
      "type": "function"
    },
    {
      "inputs": [
        {
          "internalType": "address",
          "name": "newOwner",
          "type": "address"
        }
      ],
      "name": "transferOwnership",
      "outputs": [],
      "stateMutability": "nonpayable",
      "type": "function"
    },
    {
      "inputs": [],
      "name": "usdt",
      "outputs": [
        {
          "internalType": "contract IERC20",
          "name": "",
          "type": "address"
        }
      ],
      "stateMutability": "view",
      "type": "function"
    }
  ],
  "bytecode": "0x608060405234801561001057600080fd5b50604051611bf3380380611bf383398181016040528101906100329190610223565b33600073ffffffffffffffffffffffffffffffffffffffff168173ffffffffffffffffffffffffffffffffffffffff16036100a55760006040517f1e4fbdf700000000000000000000000000000000000000000000000000000000815260040161009c919061025f565b60405180910390fd5b6100b4816100fc60201b60201c565b5080600160006101000a81548173ffffffffffffffffffffffffffffffffffffffff021916908373ffffffffffffffffffffffffffffffffffffffff1602179055505061027a565b60008060009054906101000a900473ffffffffffffffffffffffffffffffffffffffff169050816000806101000a81548173ffffffffffffffffffffffffffffffffffffffff021916908373ffffffffffffffffffffffffffffffffffffffff1602179055508173ffffffffffffffffffffffffffffffffffffffff168173ffffffffffffffffffffffffffffffffffffffff167f8be0079c531659141344cd1fd0a4f28419497f9722a3daafe3b4186f6b6457e060405160405180910390a35050565b600080fd5b600073ffffffffffffffffffffffffffffffffffffffff82169050919050565b60006101f0826101c5565b9050919050565b610200816101e5565b811461020b57600080fd5b50565b60008151905061021d816101f7565b92915050565b600060208284031215610239576102386101c0565b5b60006102478482850161020e565b91505092915050565b610259816101e5565b82525050565b60006020820190506102746000830184610250565b92915050565b61196a806102896000396000f3fe608060405234801561001057600080fd5b50600436106100935760003560e01c8063715018a611610066578063715018a61461012557806376d58e1a1461012f57806389cb29dd1461014b5780638da5cb5b14610169578063f2fde38b1461018757610093565b8063012f52ee146100985780632d55cf16146100cf5780632f48ab7d146100eb57806337e475bf14610109575b600080fd5b6100b260048036038101906100ad9190610d21565b6101a3565b6040516100c6989796959493929190610e49565b60405180910390f35b6100e960048036038101906100e49190610d21565b6102ed565b005b6100f361044a565b6040516101009190610f2d565b60405180910390f35b610123600480360381019061011e91906110a9565b610470565b005b61012d6106b1565b005b61014960048036038101906101449190610d21565b6106c5565b005b6101536107a9565b6040516101609190611152565b60405180910390f35b6101716107af565b60405161017e919061116d565b60405180910390f35b6101a1600480360381019061019c9190611188565b6107d8565b005b60026020528060005260406000206000915090508060000154908060010160009054906101000a900473ffffffffffffffffffffffffffffffffffffffff16908060020160009054906101000a900473ffffffffffffffffffffffffffffffffffffffff16908060030160009054906101000a900473ffffffffffffffffffffffffffffffffffffffff1690806004015490806005018054610244906111e4565b80601f0160208091040260200160405190810160405280929190818152602001828054610270906111e4565b80156102bd5780601f10610292576101008083540402835291602001916102bd565b820191906000526020600020905b8154815290600101906020018083116102a057829003601f168201915b5050505050908060060160009054906101000a900460ff16908060060160019054906101000a900460ff16905088565b60006002600083815260200190815260200160002090508060020160009054906101000a900473ffffffffffffffffffffffffffffffffffffffff1673ffffffffffffffffffffffffffffffffffffffff163373ffffffffffffffffffffffffffffffffffffffff1614610396576040517f08c379a000000000000000000000000000000000000000000000000000000000815260040161038d90611261565b60405180910390fd5b8060060160009054906101000a900460ff16156103e8576040517f08c379a00000000000000000000000000000000000000000000000000000000081526004016103df906112cd565b60405180910390fd5b60018160060160006101000a81548160ff021916908315150217905550817fea9f53fb648d85e5abca085c83b0be3606dfbea77fd0c59d0d862a18b6ece23d33604051610435919061116d565b60405180910390a26104468261085e565b5050565b600160009054906101000a900473ffffffffffffffffffffffffffffffffffffffff1681565b610478610b84565b60006003600081548092919061048d9061131c565b9190505590506040518061010001604052808881526020018773ffffffffffffffffffffffffffffffffffffffff1681526020018673ffffffffffffffffffffffffffffffffffffffff1681526020018573ffffffffffffffffffffffffffffffffffffffff16815260200184815260200183815260200160001515815260200160001515815250600260008381526020019081526020016000206000820151816000015560208201518160010160006101000a81548173ffffffffffffffffffffffffffffffffffffffff021916908373ffffffffffffffffffffffffffffffffffffffff16021790555060408201518160020160006101000a81548173ffffffffffffffffffffffffffffffffffffffff021916908373ffffffffffffffffffffffffffffffffffffffff16021790555060608201518160030160006101000a81548173ffffffffffffffffffffffffffffffffffffffff021916908373ffffffffffffffffffffffffffffffffffffffff1602179055506080820151816004015560a08201518160050190816106269190611506565b5060c08201518160060160006101000a81548160ff02191690831515021790555060e08201518160060160016101000a81548160ff021916908315150217905550905050807f5dcfd31df7d859f846315bc73cc35ae2253049366b1cd29a39a439630cb4cd45888888876040516106a094939291906115d8565b60405180910390a250505050505050565b6106b9610b84565b6106c36000610c0b565b565b600160009054906101000a900473ffffffffffffffffffffffffffffffffffffffff1673ffffffffffffffffffffffffffffffffffffffff166323b872dd3330846040518463ffffffff1660e01b81526004016107249392919061161d565b6020604051808303816000875af1158015610743573d6000803e3d6000fd5b505050506040513d601f19601f820116820180604052508101906107679190611680565b6107a6576040517f08c379a000000000000000000000000000000000000000000000000000000000815260040161079d906116f9565b60405180910390fd5b50565b60035481565b60008060009054906101000a900473ffffffffffffffffffffffffffffffffffffffff16905090565b6107e0610b84565b600073ffffffffffffffffffffffffffffffffffffffff168173ffffffffffffffffffffffffffffffffffffffff16036108525760006040517f1e4fbdf7000000000000000000000000000000000000000000000000000000008152600401610849919061116d565b60405180910390fd5b61085b81610c0b565b50565b60006002600083815260200190815260200160002090508060060160009054906101000a900460ff166108c6576040517f08c379a00000000000000000000000000000000000000000000000000000000081526004016108bd90611765565b60405180910390fd5b8060060160019054906101000a900460ff1615610918576040517f08c379a000000000000000000000000000000000000000000000000000000000815260040161090f906117d1565b60405180910390fd5b8060040154600160009054906101000a900473ffffffffffffffffffffffffffffffffffffffff1673ffffffffffffffffffffffffffffffffffffffff166370a08231306040518263ffffffff1660e01b8152600401610978919061116d565b602060405180830381865afa158015610995573d6000803e3d6000fd5b505050506040513d601f19601f820116820180604052508101906109b99190611806565b10156109fa576040517f08c379a00000000000000000000000000000000000000000000000000000000081526004016109f19061187f565b60405180910390fd5b60018160060160016101000a81548160ff021916908315150217905550600160009054906101000a900473ffffffffffffffffffffffffffffffffffffffff1673ffffffffffffffffffffffffffffffffffffffff1663a9059cbb8260020160009054906101000a900473ffffffffffffffffffffffffffffffffffffffff1683600401546040518363ffffffff1660e01b8152600401610a9c92919061189f565b6020604051808303816000875af1158015610abb573d6000803e3d6000fd5b505050506040513d601f19601f82011682018060405250810190610adf9190611680565b610b1e576040517f08c379a0000000000000000000000000000000000000000000000000000000008152600401610b1590611914565b60405180910390fd5b817ff53b44ce944fc5c75c0503c9a96d9f2bdaf6d6e931e2c239525b6767b55e286e8260020160009054906101000a900473ffffffffffffffffffffffffffffffffffffffff168360040154604051610b7892919061189f565b60405180910390a25050565b610b8c610ccf565b73ffffffffffffffffffffffffffffffffffffffff16610baa6107af565b73ffffffffffffffffffffffffffffffffffffffff1614610c0957610bcd610ccf565b6040517f118cdaa7000000000000000000000000000000000000000000000000000000008152600401610c00919061116d565b60405180910390fd5b565b60008060009054906101000a900473ffffffffffffffffffffffffffffffffffffffff169050816000806101000a81548173ffffffffffffffffffffffffffffffffffffffff021916908373ffffffffffffffffffffffffffffffffffffffff1602179055508173ffffffffffffffffffffffffffffffffffffffff168173ffffffffffffffffffffffffffffffffffffffff167f8be0079c531659141344cd1fd0a4f28419497f9722a3daafe3b4186f6b6457e060405160405180910390a35050565b600033905090565b6000604051905090565b600080fd5b600080fd5b6000819050919050565b610cfe81610ceb565b8114610d0957600080fd5b50565b600081359050610d1b81610cf5565b92915050565b600060208284031215610d3757610d36610ce1565b5b6000610d4584828501610d0c565b91505092915050565b610d5781610ceb565b82525050565b600073ffffffffffffffffffffffffffffffffffffffff82169050919050565b6000610d8882610d5d565b9050919050565b610d9881610d7d565b82525050565b600081519050919050565b600082825260208201905092915050565b60005b83811015610dd8578082015181840152602081019050610dbd565b60008484015250505050565b6000601f19601f8301169050919050565b6000610e0082610d9e565b610e0a8185610da9565b9350610e1a818560208601610dba565b610e2381610de4565b840191505092915050565b60008115159050919050565b610e4381610e2e565b82525050565b600061010082019050610e5f600083018b610d4e565b610e6c602083018a610d8f565b610e796040830189610d8f565b610e866060830188610d8f565b610e936080830187610d4e565b81810360a0830152610ea58186610df5565b9050610eb460c0830185610e3a565b610ec160e0830184610e3a565b9998505050505050505050565b6000819050919050565b6000610ef3610eee610ee984610d5d565b610ece565b610d5d565b9050919050565b6000610f0582610ed8565b9050919050565b6000610f1782610efa565b9050919050565b610f2781610f0c565b82525050565b6000602082019050610f426000830184610f1e565b92915050565b610f5181610d7d565b8114610f5c57600080fd5b50565b600081359050610f6e81610f48565b92915050565b600080fd5b600080fd5b7f4e487b7100000000000000000000000000000000000000000000000000000000600052604160045260246000fd5b610fb682610de4565b810181811067ffffffffffffffff82111715610fd557610fd4610f7e565b5b80604052505050565b6000610fe8610cd7565b9050610ff48282610fad565b919050565b600067ffffffffffffffff82111561101457611013610f7e565b5b61101d82610de4565b9050602081019050919050565b82818337600083830152505050565b600061104c61104784610ff9565b610fde565b90508281526020810184848401111561106857611067610f79565b5b61107384828561102a565b509392505050565b600082601f8301126110905761108f610f74565b5b81356110a0848260208601611039565b91505092915050565b60008060008060008060c087890312156110c6576110c5610ce1565b5b60006110d489828a01610d0c565b96505060206110e589828a01610f5f565b95505060406110f689828a01610f5f565b945050606061110789828a01610f5f565b935050608061111889828a01610d0c565b92505060a087013567ffffffffffffffff81111561113957611138610ce6565b5b61114589828a0161107b565b9150509295509295509295565b60006020820190506111676000830184610d4e565b92915050565b60006020820190506111826000830184610d8f565b92915050565b60006020828403121561119e5761119d610ce1565b5b60006111ac84828501610f5f565b91505092915050565b7f4e487b7100000000000000000000000000000000000000000000000000000000600052602260045260246000fd5b600060028204905060018216806111fc57607f821691505b60208210810361120f5761120e6111b5565b5b50919050565b7f4f6e6c792053656c6c65722063616e20636f6e6669726d000000000000000000600082015250565b600061124b601783610da9565b915061125682611215565b602082019050919050565b6000602082019050818103600083015261127a8161123e565b9050919050565b7f416c726561647920636f6e6669726d6564000000000000000000000000000000600082015250565b60006112b7601183610da9565b91506112c282611281565b602082019050919050565b600060208201905081810360008301526112e6816112aa565b9050919050565b7f4e487b7100000000000000000000000000000000000000000000000000000000600052601160045260246000fd5b600061132782610ceb565b91507fffffffffffffffffffffffffffffffffffffffffffffffffffffffffffffffff8203611359576113586112ed565b5b600182019050919050565b60008190508160005260206000209050919050565b60006020601f8301049050919050565b600082821b905092915050565b6000600883026113c67fffffffffffffffffffffffffffffffffffffffffffffffffffffffffffffffff82611389565b6113d08683611389565b95508019841693508086168417925050509392505050565b60006114036113fe6113f984610ceb565b610ece565b610ceb565b9050919050565b6000819050919050565b61141d836113e8565b6114316114298261140a565b848454611396565b825550505050565b600090565b611446611439565b611451818484611414565b505050565b5b818110156114755761146a60008261143e565b600181019050611457565b5050565b601f8211156114ba5761148b81611364565b61149484611379565b810160208510156114a3578190505b6114b76114af85611379565b830182611456565b50505b505050565b600082821c905092915050565b60006114dd600019846008026114bf565b1980831691505092915050565b60006114f683836114cc565b9150826002028217905092915050565b61150f82610d9e565b67ffffffffffffffff81111561152857611527610f7e565b5b61153282546111e4565b61153d828285611479565b600060209050601f831160018114611570576000841561155e578287015190505b61156885826114ea565b8655506115d0565b601f19841661157e86611364565b60005b828110156115a657848901518255600182019150602085019450602081019050611581565b868310156115c357848901516115bf601f8916826114cc565b8355505b6001600288020188555050505b505050505050565b60006080820190506115ed6000830187610d4e565b6115fa6020830186610d8f565b6116076040830185610d8f565b6116146060830184610d4e565b95945050505050565b60006060820190506116326000830186610d8f565b61163f6020830185610d8f565b61164c6040830184610d4e565b949350505050565b61165d81610e2e565b811461166857600080fd5b50565b60008151905061167a81611654565b92915050565b60006020828403121561169657611695610ce1565b5b60006116a48482850161166b565b91505092915050565b7f4c6971756964697479207472616e73666572206661696c656400000000000000600082015250565b60006116e3601983610da9565b91506116ee826116ad565b602082019050919050565b60006020820190508181036000830152611712816116d6565b9050919050565b7f436f6e6669726d6174696f6e2072657175697265640000000000000000000000600082015250565b600061174f601583610da9565b915061175a82611719565b602082019050919050565b6000602082019050818103600083015261177e81611742565b9050919050565b7f416c72656164792072656c656173656400000000000000000000000000000000600082015250565b60006117bb601083610da9565b91506117c682611785565b602082019050919050565b600060208201905081810360008301526117ea816117ae565b9050919050565b60008151905061180081610cf5565b92915050565b60006020828403121561181c5761181b610ce1565b5b600061182a848285016117f1565b91505092915050565b7f496e73756666696369656e74205553445420696e204d6972726f7220706f6f6c600082015250565b6000611869602083610da9565b915061187482611833565b602082019050919050565b600060208201905081810360008301526118988161185c565b9050919050565b60006040820190506118b46000830185610d8f565b6118c16020830184610d4e565b9392505050565b7f55534454207472616e73666572206661696c6564206f6e20424e420000000000600082015250565b60006118fe601b83610da9565b9150611909826118c8565b602082019050919050565b6000602082019050818103600083015261192d816118f1565b905091905056fea26469706673582212206361fc7eab81c58dc4bb89684974b54c9e630fa615bde4158abd98a41a85608464736f6c634300081c0033",
  "linkReferences": {},
  "deployedLinkReferences": {}
}