{
  "_format": "hh-sol-artifact-1",
  "contractName": "SimpleEscrow",
  "sourceName": "static/contract/contract.sol",
  "abi": [
    {
      "inputs": [],
      "stateMutability": "nonpayable",
      "type": "constructor"
    },
    {
      "anonymous": false,
      "inputs": [
        {
          "indexed": true,
          "internalType": "address",
          "name": "party",
          "type": "address"
        },
        {
          "indexed": false,
          "internalType": "uint256",
          "name": "step",
          "type": "uint256"
        }
      ],
      "name": "Confirmed",
      "type": "event"
    },
    {
      "anonymous": false,
      "inputs": [
        {
          "indexed": true,
          "internalType": "address",
          "name": "initiator",
          "type": "address"
        },
        {
          "indexed": true,
          "internalType": "address",
          "name": "receiver",
          "type": "address"
        },
        {
          "indexed": true,
          "internalType": "address",
          "name": "agent",
          "type": "address"
        },
        {
          "indexed": false,
          "internalType": "uint256",
          "name": "amount",
          "type": "uint256"
        },
        {
          "indexed": false,
          "internalType": "string",
          "name": "ipfsHash",
          "type": "string"
        }
      ],
      "name": "EscrowCreated",
      "type": "event"
    },
    {
      "anonymous": false,
      "inputs": [
        {
          "indexed": true,
          "internalType": "address",
          "name": "receiver",
          "type": "address"
        },
        {
          "indexed": false,
          "internalType": "uint256",
          "name": "amount",
          "type": "uint256"
        }
      ],
      "name": "FundsReleased",
      "type": "event"
    },
    {
      "inputs": [],
      "name": "agent",
      "outputs": [
        {
          "internalType": "address",
          "name": "",
          "type": "address"
        }
      ],
      "stateMutability": "view",
      "type": "function"
    },
    {
      "inputs": [],
      "name": "agentConfirmed",
      "outputs": [
        {
          "internalType": "bool",
          "name": "",
          "type": "bool"
        }
      ],
      "stateMutability": "view",
      "type": "function"
    },
    {
      "inputs": [],
      "name": "amount",
      "outputs": [
        {
          "internalType": "uint256",
          "name": "",
          "type": "uint256"
        }
      ],
      "stateMutability": "view",
      "type": "function"
    },
    {
      "inputs": [],
      "name": "confirmAgent",
      "outputs": [],
      "stateMutability": "nonpayable",
      "type": "function"
    },
    {
      "inputs": [],
      "name": "confirmUser1",
      "outputs": [],
      "stateMutability": "nonpayable",
      "type": "function"
    },
    {
      "inputs": [],
      "name": "confirmUser2",
      "outputs": [],
      "stateMutability": "nonpayable",
      "type": "function"
    },
    {
      "inputs": [
        {
          "internalType": "address",
          "name": "_user2",
          "type": "address"
        },
        {
          "internalType": "address",
          "name": "_agent",
          "type": "address"
        },
        {
          "internalType": "string",
          "name": "_ipfsHash",
          "type": "string"
        }
      ],
      "name": "createEscrow",
      "outputs": [],
      "stateMutability": "payable",
      "type": "function"
    },
    {
      "inputs": [],
      "name": "ipfsHash",
      "outputs": [
        {
          "internalType": "string",
          "name": "",
          "type": "string"
        }
      ],
      "stateMutability": "view",
      "type": "function"
    },
    {
      "inputs": [],
      "name": "isActive",
      "outputs": [
        {
          "internalType": "bool",
          "name": "",
          "type": "bool"
        }
      ],
      "stateMutability": "view",
      "type": "function"
    },
    {
      "inputs": [],
      "name": "user1",
      "outputs": [
        {
          "internalType": "address",
          "name": "",
          "type": "address"
        }
      ],
      "stateMutability": "view",
      "type": "function"
    },
    {
      "inputs": [],
      "name": "user1Confirmed",
      "outputs": [
        {
          "internalType": "bool",
          "name": "",
          "type": "bool"
        }
      ],
      "stateMutability": "view",
      "type": "function"
    },
    {
      "inputs": [],
      "name": "user2",
      "outputs": [
        {
          "internalType": "address",
          "name": "",
          "type": "address"
        }
      ],
      "stateMutability": "view",
      "type": "function"
    },
    {
      "inputs": [],
      "name": "user2Confirmed",
      "outputs": [
        {
          "internalType": "bool",
          "name": "",
          "type": "bool"
        }
      ],
      "stateMutability": "view",
      "type": "function"
    },
    {
      "stateMutability": "payable",
      "type": "receive"
    }
  ],
  "bytecode": "0x6080604052348015600f57600080fd5b506121f08061001f6000396000f3fe6080604052600436106100c65760003560e01c8063b9edb1af1161007f578063ec29f1d911610059578063ec29f1d91461027f578063f13635d414610296578063f217d4a6146102ad578063f5ff5c76146102c457610106565b8063b9edb1af146101fe578063bf02ffc214610229578063c623674f1461025457610106565b806322f3e2d41461010b5780634ab3e42b146101365780634ba6250a146101615780638bb6c3ec1461018c578063aa8c217c146101a8578063ac1717b0146101d357610106565b36610106576040517f08c379a00000000000000000000000000000000000000000000000000000000081526004016100fd906110f3565b60405180910390fd5b600080fd5b34801561011757600080fd5b506101206102ef565b60405161012d919061112e565b60405180910390f35b34801561014257600080fd5b5061014b610302565b604051610158919061112e565b60405180910390f35b34801561016d57600080fd5b50610176610315565b604051610183919061112e565b60405180910390f35b6101a660048036038101906101a19190611301565b610328565b005b3480156101b457600080fd5b506101bd6107a8565b6040516101ca9190611389565b60405180910390f35b3480156101df57600080fd5b506101e86107ae565b6040516101f591906113b3565b60405180910390f35b34801561020a57600080fd5b506102136107d2565b60405161022091906113b3565b60405180910390f35b34801561023557600080fd5b5061023e6107f8565b60405161024b919061112e565b60405180910390f35b34801561026057600080fd5b5061026961080b565b604051610276919061143c565b60405180910390f35b34801561028b57600080fd5b50610294610899565b005b3480156102a257600080fd5b506102ab610a83565b005b3480156102b957600080fd5b506102c2610c1c565b005b3480156102d057600080fd5b506102d9610e26565b6040516102e691906113b3565b60405180910390f35b600560039054906101000a900460ff1681565b600560009054906101000a900460ff1681565b600560019054906101000a900460ff1681565b600560039054906101000a900460ff1615610378576040517f08c379a000000000000000000000000000000000000000000000000000000000815260040161036f906114aa565b60405180910390fd5b600034116103bb576040517f08c379a00000000000000000000000000000000000000000000000000000000081526004016103b290611516565b60405180910390fd5b600073ffffffffffffffffffffffffffffffffffffffff168373ffffffffffffffffffffffffffffffffffffffff16141580156104255750600073ffffffffffffffffffffffffffffffffffffffff168273ffffffffffffffffffffffffffffffffffffffff1614155b610464576040517f08c379a000000000000000000000000000000000000000000000000000000000815260040161045b906115a8565b60405180910390fd5b3373ffffffffffffffffffffffffffffffffffffffff168373ffffffffffffffffffffffffffffffffffffffff16141580156104cc57503373ffffffffffffffffffffffffffffffffffffffff168273ffffffffffffffffffffffffffffffffffffffff1614155b61050b576040517f08c379a00000000000000000000000000000000000000000000000000000000081526004016105029061163a565b60405180910390fd5b8173ffffffffffffffffffffffffffffffffffffffff168373ffffffffffffffffffffffffffffffffffffffff1603610579576040517f08c379a0000000000000000000000000000000000000000000000000000000008152600401610570906116cc565b60405180910390fd5b336000806101000a81548173ffffffffffffffffffffffffffffffffffffffff021916908373ffffffffffffffffffffffffffffffffffffffff16021790555082600160006101000a81548173ffffffffffffffffffffffffffffffffffffffff021916908373ffffffffffffffffffffffffffffffffffffffff16021790555081600260006101000a81548173ffffffffffffffffffffffffffffffffffffffff021916908373ffffffffffffffffffffffffffffffffffffffff16021790555034600381905550806004908161065191906118f8565b506001600560036101000a81548160ff0219169083151502179055506000600560006101000a81548160ff0219169083151502179055506000600560016101000a81548160ff0219169083151502179055506000600560026101000a81548160ff021916908315150217905550600260009054906101000a900473ffffffffffffffffffffffffffffffffffffffff1673ffffffffffffffffffffffffffffffffffffffff16600160009054906101000a900473ffffffffffffffffffffffffffffffffffffffff1673ffffffffffffffffffffffffffffffffffffffff1660008054906101000a900473ffffffffffffffffffffffffffffffffffffffff1673ffffffffffffffffffffffffffffffffffffffff167fce1e6bf60de0cb83b0dc94c84bb59699ad0638667144f8d343087a248d77d648600354600460405161079b929190611a4e565b60405180910390a4505050565b60035481565b60008054906101000a900473ffffffffffffffffffffffffffffffffffffffff1681565b600160009054906101000a900473ffffffffffffffffffffffffffffffffffffffff1681565b600560029054906101000a900460ff1681565b600480546108189061171b565b80601f01602080910402602001604051908101604052809291908181526020018280546108449061171b565b80156108915780601f1061086657610100808354040283529160200191610891565b820191906000526020600020905b81548152906001019060200180831161087457829003601f168201915b505050505081565b600560039054906101000a900460ff166108e8576040517f08c379a00000000000000000000000000000000000000000000000000000000081526004016108df90611aca565b60405180910390fd5b600560009054906101000a900460ff16610937576040517f08c379a000000000000000000000000000000000000000000000000000000000815260040161092e90611b5c565b60405180910390fd5b600260009054906101000a900473ffffffffffffffffffffffffffffffffffffffff1673ffffffffffffffffffffffffffffffffffffffff163373ffffffffffffffffffffffffffffffffffffffff16146109c7576040517f08c379a00000000000000000000000000000000000000000000000000000000081526004016109be90611bee565b60405180910390fd5b600560019054906101000a900460ff1615610a17576040517f08c379a0000000000000000000000000000000000000000000000000000000008152600401610a0e90611c5a565b60405180910390fd5b6001600560016101000a81548160ff0219169083151502179055503373ffffffffffffffffffffffffffffffffffffffff167fab825bb15a80ddd6248dab50c44299ab366e0658b16d6c37ceda8018f5b1adde6002604051610a799190611cb5565b60405180910390a2565b600560039054906101000a900460ff16610ad2576040517f08c379a0000000000000000000000000000000000000000000000000000000008152600401610ac990611aca565b60405180910390fd5b60008054906101000a900473ffffffffffffffffffffffffffffffffffffffff1673ffffffffffffffffffffffffffffffffffffffff163373ffffffffffffffffffffffffffffffffffffffff1614610b60576040517f08c379a0000000000000000000000000000000000000000000000000000000008152600401610b5790611d42565b60405180910390fd5b600560009054906101000a900460ff1615610bb0576040517f08c379a0000000000000000000000000000000000000000000000000000000008152600401610ba790611dae565b60405180910390fd5b6001600560006101000a81548160ff0219169083151502179055503373ffffffffffffffffffffffffffffffffffffffff167fab825bb15a80ddd6248dab50c44299ab366e0658b16d6c37ceda8018f5b1adde6001604051610c129190611e09565b60405180910390a2565b600560039054906101000a900460ff16610c6b576040517f08c379a0000000000000000000000000000000000000000000000000000000008152600401610c6290611aca565b60405180910390fd5b600560009054906101000a900460ff168015610c935750600560019054906101000a900460ff165b610cd2576040517f08c379a0000000000000000000000000000000000000000000000000000000008152600401610cc990611e96565b60405180910390fd5b600160009054906101000a900473ffffffffffffffffffffffffffffffffffffffff1673ffffffffffffffffffffffffffffffffffffffff163373ffffffffffffffffffffffffffffffffffffffff1614610d62576040517f08c379a0000000000000000000000000000000000000000000000000000000008152600401610d5990611f28565b60405180910390fd5b600560029054906101000a900460ff1615610db2576040517f08c379a0000000000000000000000000000000000000000000000000000000008152600401610da990611f94565b60405180910390fd5b6001600560026101000a81548160ff0219169083151502179055503373ffffffffffffffffffffffffffffffffffffffff167fab825bb15a80ddd6248dab50c44299ab366e0658b16d6c37ceda8018f5b1adde6003604051610e149190611fef565b60405180910390a2610e24610e4c565b565b600260009054906101000a900473ffffffffffffffffffffffffffffffffffffffff1681565b600560009054906101000a900460ff168015610e745750600560019054906101000a900460ff165b8015610e8c5750600560029054906101000a900460ff165b610ecb576040517f08c379a0000000000000000000000000000000000000000000000000000000008152600401610ec29061207c565b60405180910390fd5b600354471015610f10576040517f08c379a0000000000000000000000000000000000000000000000000000000008152600401610f07906120e8565b60405180910390fd5b6000600560036101000a81548160ff0219169083151502179055506000600160009054906101000a900473ffffffffffffffffffffffffffffffffffffffff1673ffffffffffffffffffffffffffffffffffffffff16600354604051610f7590612139565b60006040518083038185875af1925050503d8060008114610fb2576040519150601f19603f3d011682016040523d82523d6000602084013e610fb7565b606091505b5050905080610ffb576040517f08c379a0000000000000000000000000000000000000000000000000000000008152600401610ff29061219a565b60405180910390fd5b600160009054906101000a900473ffffffffffffffffffffffffffffffffffffffff1673ffffffffffffffffffffffffffffffffffffffff167f221c08a06b07a64803b3787861a3f276212fcccb51c2e6234077a9b8cb13047a6003546040516110659190611389565b60405180910390a250565b600082825260208201905092915050565b7f4554482063616e6e6f742062652073656e74206469726563746c7920746f207460008201527f68697320636f6e74726163742e00000000000000000000000000000000000000602082015250565b60006110dd602d83611070565b91506110e882611081565b604082019050919050565b6000602082019050818103600083015261110c816110d0565b9050919050565b60008115159050919050565b61112881611113565b82525050565b6000602082019050611143600083018461111f565b92915050565b6000604051905090565b600080fd5b600080fd5b600073ffffffffffffffffffffffffffffffffffffffff82169050919050565b60006111888261115d565b9050919050565b6111988161117d565b81146111a357600080fd5b50565b6000813590506111b58161118f565b92915050565b600080fd5b600080fd5b6000601f19601f8301169050919050565b7f4e487b7100000000000000000000000000000000000000000000000000000000600052604160045260246000fd5b61120e826111c5565b810181811067ffffffffffffffff8211171561122d5761122c6111d6565b5b80604052505050565b6000611240611149565b905061124c8282611205565b919050565b600067ffffffffffffffff82111561126c5761126b6111d6565b5b611275826111c5565b9050602081019050919050565b82818337600083830152505050565b60006112a461129f84611251565b611236565b9050828152602081018484840111156112c0576112bf6111c0565b5b6112cb848285611282565b509392505050565b600082601f8301126112e8576112e76111bb565b5b81356112f8848260208601611291565b91505092915050565b60008060006060848603121561131a57611319611153565b5b6000611328868287016111a6565b9350506020611339868287016111a6565b925050604084013567ffffffffffffffff81111561135a57611359611158565b5b611366868287016112d3565b9150509250925092565b6000819050919050565b61138381611370565b82525050565b600060208201905061139e600083018461137a565b92915050565b6113ad8161117d565b82525050565b60006020820190506113c860008301846113a4565b92915050565b600081519050919050565b60005b838110156113f75780820151818401526020810190506113dc565b60008484015250505050565b600061140e826113ce565b6114188185611070565b93506114288185602086016113d9565b611431816111c5565b840191505092915050565b600060208201905081810360008301526114568184611403565b905092915050565b7f457363726f7720616c7265616479206163746976650000000000000000000000600082015250565b6000611494601583611070565b915061149f8261145e565b602082019050919050565b600060208201905081810360008301526114c381611487565b9050919050565b7f4d7573742073656e642045544820746f20657363726f77000000000000000000600082015250565b6000611500601783611070565b915061150b826114ca565b602082019050919050565b6000602082019050818103600083015261152f816114f3565b9050919050565b7f496e76616c6964207265636569766572206f72206167656e742061646472657360008201527f7300000000000000000000000000000000000000000000000000000000000000602082015250565b6000611592602183611070565b915061159d82611536565b604082019050919050565b600060208201905081810360008301526115c181611585565b9050919050565b7f4167656e74206f722052656365697665722063616e6e6f74206265207468652060008201527f696e69746961746f720000000000000000000000000000000000000000000000602082015250565b6000611624602983611070565b915061162f826115c8565b604082019050919050565b6000602082019050818103600083015261165381611617565b9050919050565b7f526563656976657220616e64204167656e742063616e6e6f742062652074686560008201527f2073616d65206164647265737300000000000000000000000000000000000000602082015250565b60006116b6602d83611070565b91506116c18261165a565b604082019050919050565b600060208201905081810360008301526116e5816116a9565b9050919050565b7f4e487b7100000000000000000000000000000000000000000000000000000000600052602260045260246000fd5b6000600282049050600182168061173357607f821691505b602082108103611746576117456116ec565b5b50919050565b60008190508160005260206000209050919050565b60006020601f8301049050919050565b600082821b905092915050565b6000600883026117ae7fffffffffffffffffffffffffffffffffffffffffffffffffffffffffffffffff82611771565b6117b88683611771565b95508019841693508086168417925050509392505050565b6000819050919050565b60006117f56117f06117eb84611370565b6117d0565b611370565b9050919050565b6000819050919050565b61180f836117da565b61182361181b826117fc565b84845461177e565b825550505050565b600090565b61183861182b565b611843818484611806565b505050565b5b818110156118675761185c600082611830565b600181019050611849565b5050565b601f8211156118ac5761187d8161174c565b61188684611761565b81016020851015611895578190505b6118a96118a185611761565b830182611848565b50505b505050565b600082821c905092915050565b60006118cf600019846008026118b1565b1980831691505092915050565b60006118e883836118be565b9150826002028217905092915050565b611901826113ce565b67ffffffffffffffff81111561191a576119196111d6565b5b611924825461171b565b61192f82828561186b565b600060209050601f8311600181146119625760008415611950578287015190505b61195a85826118dc565b8655506119c2565b601f1984166119708661174c565b60005b8281101561199857848901518255600182019150602085019450602081019050611973565b868310156119b557848901516119b1601f8916826118be565b8355505b6001600288020188555050505b505050505050565b600081546119d78161171b565b6119e18186611070565b945060018216600081146119fc5760018114611a1257611a45565b60ff198316865281151560200286019350611a45565b611a1b8561174c565b60005b83811015611a3d57815481890152600182019150602081019050611a1e565b808801955050505b50505092915050565b6000604082019050611a63600083018561137a565b8181036020830152611a7581846119ca565b90509392505050565b7f4e6f2061637469766520657363726f7700000000000000000000000000000000600082015250565b6000611ab4601083611070565b9150611abf82611a7e565b602082019050919050565b60006020820190508181036000830152611ae381611aa7565b9050919050565b7f5573657231206d75737420636f6e6669726d206669727374202853746570203160008201527f2900000000000000000000000000000000000000000000000000000000000000602082015250565b6000611b46602183611070565b9150611b5182611aea565b604082019050919050565b60006020820190508181036000830152611b7581611b39565b9050919050565b7f4f6e6c79207468652064657369676e61746564206167656e742063616e20636f60008201527f6e6669726d202853746570203229000000000000000000000000000000000000602082015250565b6000611bd8602e83611070565b9150611be382611b7c565b604082019050919050565b60006020820190508181036000830152611c0781611bcb565b9050919050565b7f4167656e7420616c726561647920636f6e6669726d6564000000000000000000600082015250565b6000611c44601783611070565b9150611c4f82611c0e565b602082019050919050565b60006020820190508181036000830152611c7381611c37565b9050919050565b6000819050919050565b6000611c9f611c9a611c9584611c7a565b6117d0565b611370565b9050919050565b611caf81611c84565b82525050565b6000602082019050611cca6000830184611ca6565b92915050565b7f4f6e6c792075736572312063616e20706572666f726d207468697320636f6e6660008201527f69726d6174696f6e202853746570203129000000000000000000000000000000602082015250565b6000611d2c603183611070565b9150611d3782611cd0565b604082019050919050565b60006020820190508181036000830152611d5b81611d1f565b9050919050565b7f557365723120616c726561647920636f6e6669726d6564000000000000000000600082015250565b6000611d98601783611070565b9150611da382611d62565b602082019050919050565b60006020820190508181036000830152611dc781611d8b565b9050919050565b6000819050919050565b6000611df3611dee611de984611dce565b6117d0565b611370565b9050919050565b611e0381611dd8565b82525050565b6000602082019050611e1e6000830184611dfa565b92915050565b7f557365723120616e64204167656e74206d75737420636f6e6669726d2066697260008201527f7374202853746570732031202620322900000000000000000000000000000000602082015250565b6000611e80603083611070565b9150611e8b82611e24565b604082019050919050565b60006020820190508181036000830152611eaf81611e73565b9050919050565b7f4f6e6c792075736572322063616e20706572666f726d207468697320636f6e6660008201527f69726d6174696f6e202853746570203329000000000000000000000000000000602082015250565b6000611f12603183611070565b9150611f1d82611eb6565b604082019050919050565b60006020820190508181036000830152611f4181611f05565b9050919050565b7f557365723220616c726561647920636f6e6669726d6564000000000000000000600082015250565b6000611f7e601783611070565b9150611f8982611f48565b602082019050919050565b60006020820190508181036000830152611fad81611f71565b9050919050565b6000819050919050565b6000611fd9611fd4611fcf84611fb4565b6117d0565b611370565b9050919050565b611fe981611fbe565b82525050565b60006020820190506120046000830184611fe0565b92915050565b7f436f6e6669726d6174696f6e7320696e636f6d706c657465206f72206f75742060008201527f6f66206f72646572000000000000000000000000000000000000000000000000602082015250565b6000612066602883611070565b91506120718261200a565b604082019050919050565b6000602082019050818103600083015261209581612059565b9050919050565b7f496e73756666696369656e742066756e64730000000000000000000000000000600082015250565b60006120d2601283611070565b91506120dd8261209c565b602082019050919050565b60006020820190508181036000830152612101816120c5565b9050919050565b600081905092915050565b50565b6000612123600083612108565b915061212e82612113565b600082019050919050565b600061214482612116565b9150819050919050565b7f5472616e73666572206661696c65640000000000000000000000000000000000600082015250565b6000612184600f83611070565b915061218f8261214e565b602082019050919050565b600060208201905081810360008301526121b381612177565b905091905056fea26469706673582212200c5aeba03730e87a905dbefa20debd9d0c03ae69b3a371f97813c371b59fbd8a64736f6c634300081c0033",
  "linkReferences": {},
  "deployedLinkReferences": {}
}