{
  "_format": "hh-sol-artifact-1",
  "contractName": "SupplyChainMirror",
  "sourceName": "static/contract/SupplyChainMirror.sol",
  "abi": [
    {
      "inputs": [],
      "stateMutability": "nonpayable",
      "type": "constructor"
    },
    {
      "inputs": [
        {
          "internalType": "address",
          "name": "owner",
          "type": "address"
        }
      ],
      "name": "OwnableInvalidOwner",
      "type": "error"
    },
    {
      "inputs": [
        {
          "internalType": "address",
          "name": "account",
          "type": "address"
        }
      ],
      "name": "OwnableUnauthorizedAccount",
      "type": "error"
    },
    {
      "anonymous": false,
      "inputs": [
        {
          "indexed": true,
          "internalType": "uint256",
          "name": "id",
          "type": "uint256"
        },
        {
          "indexed": false,
          "internalType": "address",
          "name": "agent",
          "type": "address"
        },
        {
          "indexed": false,
          "internalType": "string",
          "name": "ipfsHash",
          "type": "string"
        }
      ],
      "name": "AgentCheckpoint",
      "type": "event"
    },
    {
      "anonymous": false,
      "inputs": [
        {
          "indexed": true,
          "internalType": "uint256",
          "name": "id",
          "type": "uint256"
        },
        {
          "indexed": false,
          "internalType": "address",
          "name": "to",
          "type": "address"
        },
        {
          "indexed": false,
          "internalType": "uint256",
          "name": "amount",
          "type": "uint256"
        }
      ],
      "name": "FundsReleased",
      "type": "event"
    },
    {
      "anonymous": false,
      "inputs": [
        {
          "indexed": true,
          "internalType": "uint256",
          "name": "id",
          "type": "uint256"
        },
        {
          "indexed": false,
          "internalType": "address",
          "name": "buyer",
          "type": "address"
        },
        {
          "indexed": false,
          "internalType": "address",
          "name": "seller",
          "type": "address"
        },
        {
          "indexed": false,
          "internalType": "address",
          "name": "agent",
          "type": "address"
        },
        {
          "indexed": false,
          "internalType": "address",
          "name": "tokenAddress",
          "type": "address"
        },
        {
          "indexed": false,
          "internalType": "uint256",
          "name": "amount",
          "type": "uint256"
        }
      ],
      "name": "MirrorInitialized",
      "type": "event"
    },
    {
      "anonymous": false,
      "inputs": [
        {
          "indexed": true,
          "internalType": "uint256",
          "name": "id",
          "type": "uint256"
        },
        {
          "indexed": false,
          "internalType": "address",
          "name": "buyer",
          "type": "address"
        },
        {
          "indexed": false,
          "internalType": "string",
          "name": "ipfsHash",
          "type": "string"
        }
      ],
      "name": "OrderCompleted",
      "type": "event"
    },
    {
      "anonymous": false,
      "inputs": [
        {
          "indexed": true,
          "internalType": "uint256",
          "name": "id",
          "type": "uint256"
        },
        {
          "indexed": false,
          "internalType": "address",
          "name": "seller",
          "type": "address"
        },
        {
          "indexed": false,
          "internalType": "string",
          "name": "ipfsHash",
          "type": "string"
        }
      ],
      "name": "OrderConfirmed",
      "type": "event"
    },
    {
      "anonymous": false,
      "inputs": [
        {
          "indexed": true,
          "internalType": "uint256",
          "name": "id",
          "type": "uint256"
        },
        {
          "indexed": false,
          "internalType": "address",
          "name": "seller",
          "type": "address"
        },
        {
          "indexed": false,
          "internalType": "string",
          "name": "ipfsHash",
          "type": "string"
        }
      ],
      "name": "OrderDelivered",
      "type": "event"
    },
    {
      "anonymous": false,
      "inputs": [
        {
          "indexed": true,
          "internalType": "uint256",
          "name": "id",
          "type": "uint256"
        },
        {
          "indexed": false,
          "internalType": "address",
          "name": "disputer",
          "type": "address"
        },
        {
          "indexed": false,
          "internalType": "string",
          "name": "ipfsHash",
          "type": "string"
        }
      ],
      "name": "OrderDisputed",
      "type": "event"
    },
    {
      "anonymous": false,
      "inputs": [
        {
          "indexed": true,
          "internalType": "uint256",
          "name": "id",
          "type": "uint256"
        },
        {
          "indexed": false,
          "internalType": "address",
          "name": "resolver",
          "type": "address"
        },
        {
          "indexed": false,
          "internalType": "address",
          "name": "winner",
          "type": "address"
        }
      ],
      "name": "OrderResolved",
      "type": "event"
    },
    {
      "anonymous": false,
      "inputs": [
        {
          "indexed": true,
          "internalType": "uint256",
          "name": "id",
          "type": "uint256"
        },
        {
          "indexed": false,
          "internalType": "address",
          "name": "seller",
          "type": "address"
        },
        {
          "indexed": false,
          "internalType": "string",
          "name": "ipfsHash",
          "type": "string"
        }
      ],
      "name": "OrderShipped",
      "type": "event"
    },
    {
      "anonymous": false,
      "inputs": [
        {
          "indexed": true,
          "internalType": "address",
          "name": "previousOwner",
          "type": "address"
        },
        {
          "indexed": true,
          "internalType": "address",
          "name": "newOwner",
          "type": "address"
        }
      ],
      "name": "OwnershipTransferred",
      "type": "event"
    },
    {
      "inputs": [
        {
          "internalType": "uint256",
          "name": "_id",
          "type": "uint256"
        },
        {
          "internalType": "address",
          "name": "_winner",
          "type": "address"
        }
      ],
      "name": "adminResolveDispute",
      "outputs": [],
      "stateMutability": "nonpayable",
      "type": "function"
    },
    {
      "inputs": [
        {
          "internalType": "uint256",
          "name": "_id",
          "type": "uint256"
        },
        {
          "internalType": "string",
          "name": "_ipfsHash",
          "type": "string"
        }
      ],
      "name": "agentCheckpoint",
      "outputs": [],
      "stateMutability": "nonpayable",
      "type": "function"
    },
    {
      "inputs": [
        {
          "internalType": "uint256",
          "name": "_id",
          "type": "uint256"
        },
        {
          "internalType": "string",
          "name": "_ipfsHash",
          "type": "string"
        }
      ],
      "name": "confirmOrder",
      "outputs": [],
      "stateMutability": "nonpayable",
      "type": "function"
    },
    {
      "inputs": [
        {
          "internalType": "uint256",
          "name": "_id",
          "type": "uint256"
        },
        {
          "internalType": "string",
          "name": "_ipfsHash",
          "type": "string"
        }
      ],
      "name": "confirmReceipt",
      "outputs": [],
      "stateMutability": "nonpayable",
      "type": "function"
    },
    {
      "inputs": [
        {
          "internalType": "uint256",
          "name": "_id",
          "type": "uint256"
        },
        {
          "internalType": "string",
          "name": "_ipfsHash",
          "type": "string"
        }
      ],
      "name": "deliverOrder",
      "outputs": [],
      "stateMutability": "nonpayable",
      "type": "function"
    },
    {
      "inputs": [
        {
          "internalType": "address",
          "name": "_token",
          "type": "address"
        },
        {
          "internalType": "uint256",
          "name": "amount",
          "type": "uint256"
        }
      ],
      "name": "depositLiquidity",
      "outputs": [],
      "stateMutability": "payable",
      "type": "function"
    },
    {
      "inputs": [
        {
          "internalType": "address",
          "name": "",
          "type": "address"
        }
      ],
      "name": "isAuthorizedAdmin",
      "outputs": [
        {
          "internalType": "bool",
          "name": "",
          "type": "bool"
        }
      ],
      "stateMutability": "view",
      "type": "function"
    },
    {
      "inputs": [
        {
          "internalType": "uint256",
          "name": "",
          "type": "uint256"
        }
      ],
      "name": "orders",
      "outputs": [
        {
          "internalType": "uint256",
          "name": "ethId",
          "type": "uint256"
        },
        {
          "internalType": "address",
          "name": "buyer",
          "type": "address"
        },
        {
          "internalType": "address",
          "name": "seller",
          "type": "address"
        },
        {
          "internalType": "address",
          "name": "agent",
          "type": "address"
        },
        {
          "internalType": "uint256",
          "name": "amount",
          "type": "uint256"
        },
        {
          "internalType": "address",
          "name": "tokenAddress",
          "type": "address"
        },
        {
          "internalType": "enum SupplyChainMirror.OrderStatus",
          "name": "status",
          "type": "uint8"
        },
        {
          "internalType": "bool",
          "name": "fundsReleased",
          "type": "bool"
        }
      ],
      "stateMutability": "view",
      "type": "function"
    },
    {
      "inputs": [],
      "name": "owner",
      "outputs": [
        {
          "internalType": "address",
          "name": "",
          "type": "address"
        }
      ],
      "stateMutability": "view",
      "type": "function"
    },
    {
      "inputs": [
        {
          "internalType": "uint256",
          "name": "_id",
          "type": "uint256"
        },
        {
          "internalType": "string",
          "name": "_ipfsHash",
          "type": "string"
        }
      ],
      "name": "raiseDispute",
      "outputs": [],
      "stateMutability": "nonpayable",
      "type": "function"
    },
    {
      "inputs": [],
      "name": "renounceOwnership",
      "outputs": [],
      "stateMutability": "nonpayable",
      "type": "function"
    },
    {
      "inputs": [
        {
          "internalType": "address",
          "name": "_admin",
          "type": "address"
        },
        {
          "internalType": "bool",
          "name": "_status",
          "type": "bool"
        }
      ],
      "name": "setAdminStatus",
      "outputs": [],
      "stateMutability": "nonpayable",
      "type": "function"
    },
    {
      "inputs": [
        {
          "internalType": "uint256",
          "name": "_id",
          "type": "uint256"
        },
        {
          "internalType": "string",
          "name": "_ipfsHash",
          "type": "string"
        }
      ],
      "name": "shipOrder",
      "outputs": [],
      "stateMutability": "nonpayable",
      "type": "function"
    },
    {
      "inputs": [
        {
          "internalType": "uint256",
          "name": "_ethId",
          "type": "uint256"
        },
        {
          "internalType": "address",
          "name": "_buyer",
          "type": "address"
        },
        {
          "internalType": "address",
          "name": "_seller",
          "type": "address"
        },
        {
          "internalType": "address",
          "name": "_agent",
          "type": "address"
        },
        {
          "internalType": "address",
          "name": "_tokenAddress",
          "type": "address"
        },
        {
          "internalType": "uint256",
          "name": "_amount",
          "type": "uint256"
        }
      ],
      "name": "syncFromETH",
      "outputs": [],
      "stateMutability": "nonpayable",
      "type": "function"
    },
    {
      "inputs": [
        {
          "internalType": "address",
          "name": "newOwner",
          "type": "address"
        }
      ],
      "name": "transferOwnership",
      "outputs": [],
      "stateMutability": "nonpayable",
      "type": "function"
    }
  ],
  "bytecode": "0x608060405234801561001057600080fd5b5033600073ffffffffffffffffffffffffffffffffffffffff168173ffffffffffffffffffffffffffffffffffffffff16036100845760006040517f1e4fbdf700000000000000000000000000000000000000000000000000000000815260040161007b91906101f6565b60405180910390fd5b610093816100f160201b60201c565b506001600260003373ffffffffffffffffffffffffffffffffffffffff1673ffffffffffffffffffffffffffffffffffffffff16815260200190815260200160002060006101000a81548160ff021916908315150217905550610211565b60008060009054906101000a900473ffffffffffffffffffffffffffffffffffffffff169050816000806101000a81548173ffffffffffffffffffffffffffffffffffffffff021916908373ffffffffffffffffffffffffffffffffffffffff1602179055508173ffffffffffffffffffffffffffffffffffffffff168173ffffffffffffffffffffffffffffffffffffffff167f8be0079c531659141344cd1fd0a4f28419497f9722a3daafe3b4186f6b6457e060405160405180910390a35050565b600073ffffffffffffffffffffffffffffffffffffffff82169050919050565b60006101e0826101b5565b9050919050565b6101f0816101d5565b82525050565b600060208201905061020b60008301846101e7565b92915050565b612a92806102206000396000f3fe6080604052600436106100e85760003560e01c806389054ecb1161008a578063a85c38ef11610059578063a85c38ef146102a7578063cfbc8da1146102eb578063f2fde38b14610314578063f51cf02f1461033d576100e8565b806389054ecb146102015780638da5cb5b1461022a5780639072aa76146102555780639d07a8e91461027e576100e8565b806348fd93d0116100c657806348fd93d01461016f5780634f5bee44146101985780635aef573c146101c1578063715018a6146101ea576100e8565b806322a12450146100ed578063270ce1471461012a57806339b41b4a14610153575b600080fd5b3480156100f957600080fd5b50610114600480360381019061010f9190611c38565b610366565b6040516101219190611c80565b60405180910390f35b34801561013657600080fd5b50610151600480360381019061014c9190611e17565b610386565b005b61016d60048036038101906101689190611e73565b610513565b005b34801561017b57600080fd5b5061019660048036038101906101919190611e17565b61060b565b005b3480156101a457600080fd5b506101bf60048036038101906101ba9190611edf565b6107c6565b005b3480156101cd57600080fd5b506101e860048036038101906101e39190611e17565b610829565b005b3480156101f657600080fd5b506101ff610a52565b005b34801561020d57600080fd5b5061022860048036038101906102239190611f1f565b610a66565b005b34801561023657600080fd5b5061023f610d20565b60405161024c9190611f6e565b60405180910390f35b34801561026157600080fd5b5061027c60048036038101906102779190611e17565b610d49565b005b34801561028a57600080fd5b506102a560048036038101906102a09190611e17565b610ed6565b005b3480156102b357600080fd5b506102ce60048036038101906102c99190611f89565b611063565b6040516102e298979695949392919061203c565b60405180910390f35b3480156102f757600080fd5b50610312600480360381019061030d91906120ba565b611145565b005b34801561032057600080fd5b5061033b60048036038101906103369190611c38565b611478565b005b34801561034957600080fd5b50610364600480360381019061035f9190611e17565b6114fe565b005b60026020528060005260406000206000915054906101000a900460ff1681565b60006001600084815260200190815260200160002090508060020160009054906101000a900473ffffffffffffffffffffffffffffffffffffffff1673ffffffffffffffffffffffffffffffffffffffff163373ffffffffffffffffffffffffffffffffffffffff161461042f576040517f08c379a0000000000000000000000000000000000000000000000000000000008152600401610426906121a4565b60405180910390fd5b6000600781111561044357610442611fc5565b5b8160050160149054906101000a900460ff16600781111561046757610466611fc5565b5b146104a7576040517f08c379a000000000000000000000000000000000000000000000000000000000815260040161049e90612210565b60405180910390fd5b60018160050160146101000a81548160ff021916908360078111156104cf576104ce611fc5565b5b0217905550827f01e25b8d64dacbfffdad5f816e9969def49d67f01a91abf42d96ab6e804b437e338460405161050692919061229e565b60405180910390a2505050565b600073ffffffffffffffffffffffffffffffffffffffff168273ffffffffffffffffffffffffffffffffffffffff1614610607578173ffffffffffffffffffffffffffffffffffffffff166323b872dd3330846040518463ffffffff1660e01b8152600401610584939291906122ce565b6020604051808303816000875af11580156105a3573d6000803e3d6000fd5b505050506040513d601f19601f820116820180604052508101906105c7919061231a565b610606576040517f08c379a00000000000000000000000000000000000000000000000000000000081526004016105fd90612393565b60405180910390fd5b5b5050565b60006001600084815260200190815260200160002090508060010160009054906101000a900473ffffffffffffffffffffffffffffffffffffffff1673ffffffffffffffffffffffffffffffffffffffff163373ffffffffffffffffffffffffffffffffffffffff16146106b4576040517f08c379a00000000000000000000000000000000000000000000000000000000081526004016106ab906123ff565b60405180910390fd5b600460078111156106c8576106c7611fc5565b5b8160050160149054906101000a900460ff1660078111156106ec576106eb611fc5565b5b1461072c576040517f08c379a000000000000000000000000000000000000000000000000000000000815260040161072390612210565b60405180910390fd5b60058160050160146101000a81548160ff0219169083600781111561075457610753611fc5565b5b0217905550827f47b789b69e436e07356441bfdcfa53ca266c7ee113dabbef5b41f7a074d0c5e0338460405161078b92919061229e565b60405180910390a26107c1838260020160009054906101000a900473ffffffffffffffffffffffffffffffffffffffff1661168b565b505050565b6107ce611a73565b80600260008473ffffffffffffffffffffffffffffffffffffffff1673ffffffffffffffffffffffffffffffffffffffff16815260200190815260200160002060006101000a81548160ff0219169083151502179055505050565b60006001600084815260200190815260200160002090508060010160009054906101000a900473ffffffffffffffffffffffffffffffffffffffff1673ffffffffffffffffffffffffffffffffffffffff163373ffffffffffffffffffffffffffffffffffffffff1614806108ed57508060020160009054906101000a900473ffffffffffffffffffffffffffffffffffffffff1673ffffffffffffffffffffffffffffffffffffffff163373ffffffffffffffffffffffffffffffffffffffff16145b61092c576040517f08c379a00000000000000000000000000000000000000000000000000000000081526004016109239061246b565b60405180910390fd5b600560078111156109405761093f611fc5565b5b8160050160149054906101000a900460ff16600781111561096457610963611fc5565b5b141580156109a757506007808111156109805761097f611fc5565b5b8160050160149054906101000a900460ff1660078111156109a4576109a3611fc5565b5b14155b6109e6576040517f08c379a00000000000000000000000000000000000000000000000000000000081526004016109dd906124d7565b60405180910390fd5b60068160050160146101000a81548160ff02191690836007811115610a0e57610a0d611fc5565b5b0217905550827f4646ed0d1f2caee2a195a8f3d319f69e4ec38380a230313609833977654c2f1f3384604051610a4592919061229e565b60405180910390a2505050565b610a5a611a73565b610a646000611afa565b565b600260003373ffffffffffffffffffffffffffffffffffffffff1673ffffffffffffffffffffffffffffffffffffffff16815260200190815260200160002060009054906101000a900460ff1680610af05750610ac1610d20565b73ffffffffffffffffffffffffffffffffffffffff163373ffffffffffffffffffffffffffffffffffffffff16145b610b2f576040517f08c379a0000000000000000000000000000000000000000000000000000000008152600401610b2690612543565b60405180910390fd5b600060016000848152602001908152602001600020905060066007811115610b5a57610b59611fc5565b5b8160050160149054906101000a900460ff166007811115610b7e57610b7d611fc5565b5b14610bbe576040517f08c379a0000000000000000000000000000000000000000000000000000000008152600401610bb5906125af565b60405180910390fd5b8060010160009054906101000a900473ffffffffffffffffffffffffffffffffffffffff1673ffffffffffffffffffffffffffffffffffffffff168273ffffffffffffffffffffffffffffffffffffffff161480610c6b57508060020160009054906101000a900473ffffffffffffffffffffffffffffffffffffffff1673ffffffffffffffffffffffffffffffffffffffff168273ffffffffffffffffffffffffffffffffffffffff16145b610caa576040517f08c379a0000000000000000000000000000000000000000000000000000000008152600401610ca19061261b565b60405180910390fd5b60078160050160146101000a81548160ff02191690836007811115610cd257610cd1611fc5565b5b0217905550827f71ad760f6b0fe9b49225f9fec30f166f2005d48e8b93a3225f5464b7e6acc5d83384604051610d0992919061263b565b60405180910390a2610d1b838361168b565b505050565b60008060009054906101000a900473ffffffffffffffffffffffffffffffffffffffff16905090565b60006001600084815260200190815260200160002090508060030160009054906101000a900473ffffffffffffffffffffffffffffffffffffffff1673ffffffffffffffffffffffffffffffffffffffff163373ffffffffffffffffffffffffffffffffffffffff1614610df2576040517f08c379a0000000000000000000000000000000000000000000000000000000008152600401610de9906126b0565b60405180910390fd5b60026007811115610e0657610e05611fc5565b5b8160050160149054906101000a900460ff166007811115610e2a57610e29611fc5565b5b14610e6a576040517f08c379a0000000000000000000000000000000000000000000000000000000008152600401610e6190612210565b60405180910390fd5b60038160050160146101000a81548160ff02191690836007811115610e9257610e91611fc5565b5b0217905550827fd6dc334dc9e178770f0ffbc1a0e43ecef1e4661587b924a072557724cb15c12c3384604051610ec992919061229e565b60405180910390a2505050565b60006001600084815260200190815260200160002090508060020160009054906101000a900473ffffffffffffffffffffffffffffffffffffffff1673ffffffffffffffffffffffffffffffffffffffff163373ffffffffffffffffffffffffffffffffffffffff1614610f7f576040517f08c379a0000000000000000000000000000000000000000000000000000000008152600401610f76906121a4565b60405180910390fd5b60016007811115610f9357610f92611fc5565b5b8160050160149054906101000a900460ff166007811115610fb757610fb6611fc5565b5b14610ff7576040517f08c379a0000000000000000000000000000000000000000000000000000000008152600401610fee90612210565b60405180910390fd5b60028160050160146101000a81548160ff0219169083600781111561101f5761101e611fc5565b5b0217905550827fd58bce8a42d5f16d911da7a59887fb284aea98cddb81eba85d7e1aefb9d79a58338460405161105692919061229e565b60405180910390a2505050565b60016020528060005260406000206000915090508060000154908060010160009054906101000a900473ffffffffffffffffffffffffffffffffffffffff16908060020160009054906101000a900473ffffffffffffffffffffffffffffffffffffffff16908060030160009054906101000a900473ffffffffffffffffffffffffffffffffffffffff16908060040154908060050160009054906101000a900473ffffffffffffffffffffffffffffffffffffffff16908060050160149054906101000a900460ff16908060050160159054906101000a900460ff16905088565b61114d611a73565b600073ffffffffffffffffffffffffffffffffffffffff166001600088815260200190815260200160002060010160009054906101000a900473ffffffffffffffffffffffffffffffffffffffff1673ffffffffffffffffffffffffffffffffffffffff16146111f2576040517f08c379a00000000000000000000000000000000000000000000000000000000081526004016111e99061271c565b60405180910390fd5b6040518061010001604052808781526020018673ffffffffffffffffffffffffffffffffffffffff1681526020018573ffffffffffffffffffffffffffffffffffffffff1681526020018473ffffffffffffffffffffffffffffffffffffffff1681526020018281526020018373ffffffffffffffffffffffffffffffffffffffff1681526020016000600781111561128e5761128d611fc5565b5b815260200160001515815250600160008881526020019081526020016000206000820151816000015560208201518160010160006101000a81548173ffffffffffffffffffffffffffffffffffffffff021916908373ffffffffffffffffffffffffffffffffffffffff16021790555060408201518160020160006101000a81548173ffffffffffffffffffffffffffffffffffffffff021916908373ffffffffffffffffffffffffffffffffffffffff16021790555060608201518160030160006101000a81548173ffffffffffffffffffffffffffffffffffffffff021916908373ffffffffffffffffffffffffffffffffffffffff1602179055506080820151816004015560a08201518160050160006101000a81548173ffffffffffffffffffffffffffffffffffffffff021916908373ffffffffffffffffffffffffffffffffffffffff16021790555060c08201518160050160146101000a81548160ff0219169083600781111561140857611407611fc5565b5b021790555060e08201518160050160156101000a81548160ff021916908315150217905550905050857f96a1c94e882049d5ac35d1e8391ee98afd6814f48376275a825c48641fd77423868686868660405161146895949392919061273c565b60405180910390a2505050505050565b611480611a73565b600073ffffffffffffffffffffffffffffffffffffffff168173ffffffffffffffffffffffffffffffffffffffff16036114f25760006040517f1e4fbdf70000000000000000000000000000000000000000000000000000000081526004016114e99190611f6e565b60405180910390fd5b6114fb81611afa565b50565b60006001600084815260200190815260200160002090508060020160009054906101000a900473ffffffffffffffffffffffffffffffffffffffff1673ffffffffffffffffffffffffffffffffffffffff163373ffffffffffffffffffffffffffffffffffffffff16146115a7576040517f08c379a000000000000000000000000000000000000000000000000000000000815260040161159e906121a4565b60405180910390fd5b600360078111156115bb576115ba611fc5565b5b8160050160149054906101000a900460ff1660078111156115df576115de611fc5565b5b1461161f576040517f08c379a000000000000000000000000000000000000000000000000000000000815260040161161690612210565b60405180910390fd5b60048160050160146101000a81548160ff0219169083600781111561164757611646611fc5565b5b0217905550827fd378c60d95714ce447ac249ecb78da3cd4b05756d5eb5addc82260724428924b338460405161167e92919061229e565b60405180910390a2505050565b60006001600084815260200190815260200160002090508060050160159054906101000a900460ff16156116f4576040517f08c379a00000000000000000000000000000000000000000000000000000000081526004016116eb906127db565b60405180910390fd5b60018160050160156101000a81548160ff021916908315150217905550600073ffffffffffffffffffffffffffffffffffffffff168160050160009054906101000a900473ffffffffffffffffffffffffffffffffffffffff1673ffffffffffffffffffffffffffffffffffffffff16036118665780600401544710156117b0576040517f08c379a00000000000000000000000000000000000000000000000000000000081526004016117a790612847565b60405180910390fd5b60008273ffffffffffffffffffffffffffffffffffffffff1682600401546040516117da90612898565b60006040518083038185875af1925050503d8060008114611817576040519150601f19603f3d011682016040523d82523d6000602084013e61181c565b606091505b5050905080611860576040517f08c379a0000000000000000000000000000000000000000000000000000000008152600401611857906128f9565b60405180910390fd5b50611a30565b80600401548160050160009054906101000a900473ffffffffffffffffffffffffffffffffffffffff1673ffffffffffffffffffffffffffffffffffffffff166370a08231306040518263ffffffff1660e01b81526004016118c89190611f6e565b602060405180830381865afa1580156118e5573d6000803e3d6000fd5b505050506040513d601f19601f82011682018060405250810190611909919061292e565b101561194a576040517f08c379a0000000000000000000000000000000000000000000000000000000008152600401611941906129a7565b60405180910390fd5b8060050160009054906101000a900473ffffffffffffffffffffffffffffffffffffffff1673ffffffffffffffffffffffffffffffffffffffff1663a9059cbb8383600401546040518363ffffffff1660e01b81526004016119ad9291906129c7565b6020604051808303816000875af11580156119cc573d6000803e3d6000fd5b505050506040513d601f19601f820116820180604052508101906119f0919061231a565b611a2f576040517f08c379a0000000000000000000000000000000000000000000000000000000008152600401611a2690612a3c565b60405180910390fd5b5b827f6e3c6096795c8298a218b2cfb8bde42726ff7c9a3d27b4d3ba41ab7f74feb5fb838360040154604051611a669291906129c7565b60405180910390a2505050565b611a7b611bbe565b73ffffffffffffffffffffffffffffffffffffffff16611a99610d20565b73ffffffffffffffffffffffffffffffffffffffff1614611af857611abc611bbe565b6040517f118cdaa7000000000000000000000000000000000000000000000000000000008152600401611aef9190611f6e565b60405180910390fd5b565b60008060009054906101000a900473ffffffffffffffffffffffffffffffffffffffff169050816000806101000a81548173ffffffffffffffffffffffffffffffffffffffff021916908373ffffffffffffffffffffffffffffffffffffffff1602179055508173ffffffffffffffffffffffffffffffffffffffff168173ffffffffffffffffffffffffffffffffffffffff167f8be0079c531659141344cd1fd0a4f28419497f9722a3daafe3b4186f6b6457e060405160405180910390a35050565b600033905090565b6000604051905090565b600080fd5b600080fd5b600073ffffffffffffffffffffffffffffffffffffffff82169050919050565b6000611c0582611bda565b9050919050565b611c1581611bfa565b8114611c2057600080fd5b50565b600081359050611c3281611c0c565b92915050565b600060208284031215611c4e57611c4d611bd0565b5b6000611c5c84828501611c23565b91505092915050565b60008115159050919050565b611c7a81611c65565b82525050565b6000602082019050611c956000830184611c71565b92915050565b6000819050919050565b611cae81611c9b565b8114611cb957600080fd5b50565b600081359050611ccb81611ca5565b92915050565b600080fd5b600080fd5b6000601f19601f8301169050919050565b7f4e487b7100000000000000000000000000000000000000000000000000000000600052604160045260246000fd5b611d2482611cdb565b810181811067ffffffffffffffff82111715611d4357611d42611cec565b5b80604052505050565b6000611d56611bc6565b9050611d628282611d1b565b919050565b600067ffffffffffffffff821115611d8257611d81611cec565b5b611d8b82611cdb565b9050602081019050919050565b82818337600083830152505050565b6000611dba611db584611d67565b611d4c565b905082815260208101848484011115611dd657611dd5611cd6565b5b611de1848285611d98565b509392505050565b600082601f830112611dfe57611dfd611cd1565b5b8135611e0e848260208601611da7565b91505092915050565b60008060408385031215611e2e57611e2d611bd0565b5b6000611e3c85828601611cbc565b925050602083013567ffffffffffffffff811115611e5d57611e5c611bd5565b5b611e6985828601611de9565b9150509250929050565b60008060408385031215611e8a57611e89611bd0565b5b6000611e9885828601611c23565b9250506020611ea985828601611cbc565b9150509250929050565b611ebc81611c65565b8114611ec757600080fd5b50565b600081359050611ed981611eb3565b92915050565b60008060408385031215611ef657611ef5611bd0565b5b6000611f0485828601611c23565b9250506020611f1585828601611eca565b9150509250929050565b60008060408385031215611f3657611f35611bd0565b5b6000611f4485828601611cbc565b9250506020611f5585828601611c23565b9150509250929050565b611f6881611bfa565b82525050565b6000602082019050611f836000830184611f5f565b92915050565b600060208284031215611f9f57611f9e611bd0565b5b6000611fad84828501611cbc565b91505092915050565b611fbf81611c9b565b82525050565b7f4e487b7100000000000000000000000000000000000000000000000000000000600052602160045260246000fd5b6008811061200557612004611fc5565b5b50565b600081905061201682611ff4565b919050565b600061202682612008565b9050919050565b6120368161201b565b82525050565b600061010082019050612052600083018b611fb6565b61205f602083018a611f5f565b61206c6040830189611f5f565b6120796060830188611f5f565b6120866080830187611fb6565b61209360a0830186611f5f565b6120a060c083018561202d565b6120ad60e0830184611c71565b9998505050505050505050565b60008060008060008060c087890312156120d7576120d6611bd0565b5b60006120e589828a01611cbc565b96505060206120f689828a01611c23565b955050604061210789828a01611c23565b945050606061211889828a01611c23565b935050608061212989828a01611c23565b92505060a061213a89828a01611cbc565b9150509295509295509295565b600082825260208201905092915050565b7f4f6e6c792073656c6c6572000000000000000000000000000000000000000000600082015250565b600061218e600b83612147565b915061219982612158565b602082019050919050565b600060208201905081810360008301526121bd81612181565b9050919050565b7f496e76616c696420737461747573000000000000000000000000000000000000600082015250565b60006121fa600e83612147565b9150612205826121c4565b602082019050919050565b60006020820190508181036000830152612229816121ed565b9050919050565b600081519050919050565b60005b8381101561225957808201518184015260208101905061223e565b60008484015250505050565b600061227082612230565b61227a8185612147565b935061228a81856020860161223b565b61229381611cdb565b840191505092915050565b60006040820190506122b36000830185611f5f565b81810360208301526122c58184612265565b90509392505050565b60006060820190506122e36000830186611f5f565b6122f06020830185611f5f565b6122fd6040830184611fb6565b949350505050565b60008151905061231481611eb3565b92915050565b6000602082840312156123305761232f611bd0565b5b600061233e84828501612305565b91505092915050565b7f4c6971756964697479207472616e73666572206661696c656400000000000000600082015250565b600061237d601983612147565b915061238882612347565b602082019050919050565b600060208201905081810360008301526123ac81612370565b9050919050565b7f4f6e6c7920627579657200000000000000000000000000000000000000000000600082015250565b60006123e9600a83612147565b91506123f4826123b3565b602082019050919050565b60006020820190508181036000830152612418816123dc565b9050919050565b7f4f6e6c79206275796572206f722073656c6c6572000000000000000000000000600082015250565b6000612455601483612147565b91506124608261241f565b602082019050919050565b6000602082019050818103600083015261248481612448565b9050919050565b7f416c72656164792066696e697368656400000000000000000000000000000000600082015250565b60006124c1601083612147565b91506124cc8261248b565b602082019050919050565b600060208201905081810360008301526124f0816124b4565b9050919050565b7f4e6f7420617574686f72697a6564000000000000000000000000000000000000600082015250565b600061252d600e83612147565b9150612538826124f7565b602082019050919050565b6000602082019050818103600083015261255c81612520565b9050919050565b7f4e6f742064697370757465640000000000000000000000000000000000000000600082015250565b6000612599600c83612147565b91506125a482612563565b602082019050919050565b600060208201905081810360008301526125c88161258c565b9050919050565b7f496e76616c69642077696e6e6572000000000000000000000000000000000000600082015250565b6000612605600e83612147565b9150612610826125cf565b602082019050919050565b60006020820190508181036000830152612634816125f8565b9050919050565b60006040820190506126506000830185611f5f565b61265d6020830184611f5f565b9392505050565b7f4f6e6c79206167656e7400000000000000000000000000000000000000000000600082015250565b600061269a600a83612147565b91506126a582612664565b602082019050919050565b600060208201905081810360008301526126c98161268d565b9050919050565b7f4f7264657220616c72656164792073796e636564000000000000000000000000600082015250565b6000612706601483612147565b9150612711826126d0565b602082019050919050565b60006020820190508181036000830152612735816126f9565b9050919050565b600060a0820190506127516000830188611f5f565b61275e6020830187611f5f565b61276b6040830186611f5f565b6127786060830185611f5f565b6127856080830184611fb6565b9695505050505050565b7f416c72656164792072656c656173656400000000000000000000000000000000600082015250565b60006127c5601083612147565b91506127d08261278f565b602082019050919050565b600060208201905081810360008301526127f4816127b8565b9050919050565b7f496e73756666696369656e7420424e4220696e204d6972726f72000000000000600082015250565b6000612831601a83612147565b915061283c826127fb565b602082019050919050565b6000602082019050818103600083015261286081612824565b9050919050565b600081905092915050565b50565b6000612882600083612867565b915061288d82612872565b600082019050919050565b60006128a382612875565b9150819050919050565b7f424e42207472616e73666572206661696c656400000000000000000000000000600082015250565b60006128e3601383612147565b91506128ee826128ad565b602082019050919050565b60006020820190508181036000830152612912816128d6565b9050919050565b60008151905061292881611ca5565b92915050565b60006020828403121561294457612943611bd0565b5b600061295284828501612919565b91505092915050565b7f496e73756666696369656e74205553445420696e204d6972726f720000000000600082015250565b6000612991601b83612147565b915061299c8261295b565b602082019050919050565b600060208201905081810360008301526129c081612984565b9050919050565b60006040820190506129dc6000830185611f5f565b6129e96020830184611fb6565b9392505050565b7f55534454207472616e73666572206661696c6564000000000000000000000000600082015250565b6000612a26601483612147565b9150612a31826129f0565b602082019050919050565b60006020820190508181036000830152612a5581612a19565b905091905056fea264697066735822122076d451b2b9a40fff386b862c87c854e00ab1497dff83d9f531ec33dca4e2f94f64736f6c634300081c0033",
  "linkReferences": {},
  "deployedLinkReferences": {}
}