{
  "_format": "hh-sol-artifact-1",
  "contractName": "SupplyChainSource",
  "sourceName": "static/contract/SupplyChainSource.sol",
  "abi": [
    {
      "inputs": [],
      "stateMutability": "nonpayable",
      "type": "constructor"
    },
    {
      "inputs": [
        {
          "internalType": "address",
          "name": "owner",
          "type": "address"
        }
      ],
      "name": "OwnableInvalidOwner",
      "type": "error"
    },
    {
      "inputs": [
        {
          "internalType": "address",
          "name": "account",
          "type": "address"
        }
      ],
      "name": "OwnableUnauthorizedAccount",
      "type": "error"
    },
    {
      "anonymous": false,
      "inputs": [
        {
          "indexed": true,
          "internalType": "uint256",
          "name": "id",
          "type": "uint256"
        },
        {
          "indexed": false,
          "internalType": "address",
          "name": "agent",
          "type": "address"
        },
        {
          "indexed": false,
          "internalType": "string",
          "name": "ipfsHash",
          "type": "string"
        }
      ],
      "name": "AgentCheckpoint",
      "type": "event"
    },
    {
      "anonymous": false,
      "inputs": [
        {
          "indexed": true,
          "internalType": "uint256",
          "name": "id",
          "type": "uint256"
        }
      ],
      "name": "OrderBridged",
      "type": "event"
    },
    {
      "anonymous": false,
      "inputs": [
        {
          "indexed": true,
          "internalType": "uint256",
          "name": "id",
          "type": "uint256"
        },
        {
          "indexed": false,
          "internalType": "address",
          "name": "buyer",
          "type": "address"
        },
        {
          "indexed": false,
          "internalType": "string",
          "name": "ipfsHash",
          "type": "string"
        }
      ],
      "name": "OrderCompleted",
      "type": "event"
    },
    {
      "anonymous": false,
      "inputs": [
        {
          "indexed": true,
          "internalType": "uint256",
          "name": "id",
          "type": "uint256"
        },
        {
          "indexed": false,
          "internalType": "address",
          "name": "seller",
          "type": "address"
        },
        {
          "indexed": false,
          "internalType": "string",
          "name": "ipfsHash",
          "type": "string"
        }
      ],
      "name": "OrderConfirmed",
      "type": "event"
    },
    {
      "anonymous": false,
      "inputs": [
        {
          "indexed": true,
          "internalType": "uint256",
          "name": "id",
          "type": "uint256"
        },
        {
          "indexed": false,
          "internalType": "address",
          "name": "buyer",
          "type": "address"
        },
        {
          "indexed": false,
          "internalType": "address",
          "name": "seller",
          "type": "address"
        },
        {
          "indexed": false,
          "internalType": "address",
          "name": "agent",
          "type": "address"
        },
        {
          "indexed": false,
          "internalType": "address",
          "name": "tokenAddress",
          "type": "address"
        },
        {
          "indexed": false,
          "internalType": "uint256",
          "name": "amount",
          "type": "uint256"
        },
        {
          "indexed": false,
          "internalType": "string",
          "name": "ipfsHash",
          "type": "string"
        },
        {
          "indexed": false,
          "internalType": "bool",
          "name": "isMultichain",
          "type": "bool"
        }
      ],
      "name": "OrderCreated",
      "type": "event"
    },
    {
      "anonymous": false,
      "inputs": [
        {
          "indexed": true,
          "internalType": "uint256",
          "name": "id",
          "type": "uint256"
        },
        {
          "indexed": false,
          "internalType": "address",
          "name": "seller",
          "type": "address"
        },
        {
          "indexed": false,
          "internalType": "string",
          "name": "ipfsHash",
          "type": "string"
        }
      ],
      "name": "OrderDelivered",
      "type": "event"
    },
    {
      "anonymous": false,
      "inputs": [
        {
          "indexed": true,
          "internalType": "uint256",
          "name": "id",
          "type": "uint256"
        },
        {
          "indexed": false,
          "internalType": "address",
          "name": "disputer",
          "type": "address"
        },
        {
          "indexed": false,
          "internalType": "string",
          "name": "ipfsHash",
          "type": "string"
        }
      ],
      "name": "OrderDisputed",
      "type": "event"
    },
    {
      "anonymous": false,
      "inputs": [
        {
          "indexed": true,
          "internalType": "uint256",
          "name": "id",
          "type": "uint256"
        },
        {
          "indexed": false,
          "internalType": "address",
          "name": "resolver",
          "type": "address"
        },
        {
          "indexed": false,
          "internalType": "address",
          "name": "winner",
          "type": "address"
        }
      ],
      "name": "OrderResolved",
      "type": "event"
    },
    {
      "anonymous": false,
      "inputs": [
        {
          "indexed": true,
          "internalType": "uint256",
          "name": "id",
          "type": "uint256"
        },
        {
          "indexed": false,
          "internalType": "address",
          "name": "seller",
          "type": "address"
        },
        {
          "indexed": false,
          "internalType": "string",
          "name": "ipfsHash",
          "type": "string"
        }
      ],
      "name": "OrderShipped",
      "type": "event"
    },
    {
      "anonymous": false,
      "inputs": [
        {
          "indexed": true,
          "internalType": "address",
          "name": "previousOwner",
          "type": "address"
        },
        {
          "indexed": true,
          "internalType": "address",
          "name": "newOwner",
          "type": "address"
        }
      ],
      "name": "OwnershipTransferred",
      "type": "event"
    },
    {
      "inputs": [
        {
          "internalType": "uint256",
          "name": "_id",
          "type": "uint256"
        },
        {
          "internalType": "address",
          "name": "_winner",
          "type": "address"
        }
      ],
      "name": "adminResolveDispute",
      "outputs": [],
      "stateMutability": "nonpayable",
      "type": "function"
    },
    {
      "inputs": [
        {
          "internalType": "uint256",
          "name": "_id",
          "type": "uint256"
        },
        {
          "internalType": "string",
          "name": "_ipfsHash",
          "type": "string"
        }
      ],
      "name": "agentCheckpoint",
      "outputs": [],
      "stateMutability": "nonpayable",
      "type": "function"
    },
    {
      "inputs": [
        {
          "internalType": "uint256",
          "name": "_id",
          "type": "uint256"
        },
        {
          "internalType": "string",
          "name": "_ipfsHash",
          "type": "string"
        }
      ],
      "name": "confirmOrder",
      "outputs": [],
      "stateMutability": "nonpayable",
      "type": "function"
    },
    {
      "inputs": [
        {
          "internalType": "uint256",
          "name": "_id",
          "type": "uint256"
        },
        {
          "internalType": "string",
          "name": "_ipfsHash",
          "type": "string"
        }
      ],
      "name": "confirmReceipt",
      "outputs": [],
      "stateMutability": "nonpayable",
      "type": "function"
    },
    {
      "inputs": [
        {
          "internalType": "address",
          "name": "_seller",
          "type": "address"
        },
        {
          "internalType": "address",
          "name": "_agent",
          "type": "address"
        },
        {
          "internalType": "address",
          "name": "_tokenAddress",
          "type": "address"
        },
        {
          "internalType": "uint256",
          "name": "_amount",
          "type": "uint256"
        },
        {
          "internalType": "string",
          "name": "_ipfsHash",
          "type": "string"
        },
        {
          "internalType": "bool",
          "name": "_isMultichain",
          "type": "bool"
        }
      ],
      "name": "createOrder",
      "outputs": [],
      "stateMutability": "payable",
      "type": "function"
    },
    {
      "inputs": [
        {
          "internalType": "uint256",
          "name": "_id",
          "type": "uint256"
        },
        {
          "internalType": "string",
          "name": "_ipfsHash",
          "type": "string"
        }
      ],
      "name": "deliverOrder",
      "outputs": [],
      "stateMutability": "nonpayable",
      "type": "function"
    },
    {
      "inputs": [
        {
          "internalType": "address",
          "name": "",
          "type": "address"
        }
      ],
      "name": "isAuthorizedAdmin",
      "outputs": [
        {
          "internalType": "bool",
          "name": "",
          "type": "bool"
        }
      ],
      "stateMutability": "view",
      "type": "function"
    },
    {
      "inputs": [],
      "name": "nextOrderId",
      "outputs": [
        {
          "internalType": "uint256",
          "name": "",
          "type": "uint256"
        }
      ],
      "stateMutability": "view",
      "type": "function"
    },
    {
      "inputs": [
        {
          "internalType": "uint256",
          "name": "",
          "type": "uint256"
        }
      ],
      "name": "orders",
      "outputs": [
        {
          "internalType": "address",
          "name": "buyer",
          "type": "address"
        },
        {
          "internalType": "address",
          "name": "seller",
          "type": "address"
        },
        {
          "internalType": "address",
          "name": "agent",
          "type": "address"
        },
        {
          "internalType": "uint256",
          "name": "amount",
          "type": "uint256"
        },
        {
          "internalType": "address",
          "name": "tokenAddress",
          "type": "address"
        },
        {
          "internalType": "bool",
          "name": "isMultichain",
          "type": "bool"
        },
        {
          "internalType": "bool",
          "name": "isBridged",
          "type": "bool"
        },
        {
          "internalType": "enum SupplyChainSource.OrderStatus",
          "name": "status",
          "type": "uint8"
        }
      ],
      "stateMutability": "view",
      "type": "function"
    },
    {
      "inputs": [],
      "name": "owner",
      "outputs": [
        {
          "internalType": "address",
          "name": "",
          "type": "address"
        }
      ],
      "stateMutability": "view",
      "type": "function"
    },
    {
      "inputs": [
        {
          "internalType": "uint256",
          "name": "_id",
          "type": "uint256"
        },
        {
          "internalType": "string",
          "name": "_ipfsHash",
          "type": "string"
        }
      ],
      "name": "raiseDispute",
      "outputs": [],
      "stateMutability": "nonpayable",
      "type": "function"
    },
    {
      "inputs": [
        {
          "internalType": "uint256",
          "name": "_id",
          "type": "uint256"
        }
      ],
      "name": "relayerMarkBridged",
      "outputs": [],
      "stateMutability": "nonpayable",
      "type": "function"
    },
    {
      "inputs": [],
      "name": "renounceOwnership",
      "outputs": [],
      "stateMutability": "nonpayable",
      "type": "function"
    },
    {
      "inputs": [
        {
          "internalType": "address",
          "name": "_admin",
          "type": "address"
        },
        {
          "internalType": "bool",
          "name": "_status",
          "type": "bool"
        }
      ],
      "name": "setAdminStatus",
      "outputs": [],
      "stateMutability": "nonpayable",
      "type": "function"
    },
    {
      "inputs": [
        {
          "internalType": "uint256",
          "name": "_id",
          "type": "uint256"
        },
        {
          "internalType": "string",
          "name": "_ipfsHash",
          "type": "string"
        }
      ],
      "name": "shipOrder",
      "outputs": [],
      "stateMutability": "nonpayable",
      "type": "function"
    },
    {
      "inputs": [
        {
          "internalType": "address",
          "name": "newOwner",
          "type": "address"
        }
      ],
      "name": "transferOwnership",
      "outputs": [],
      "stateMutability": "nonpayable",
      "type": "function"
    }
  ],
  "bytecode": "0x608060405234801561001057600080fd5b5033600073ffffffffffffffffffffffffffffffffffffffff168173ffffffffffffffffffffffffffffffffffffffff16036100845760006040517f1e4fbdf700000000000000000000000000000000000000000000000000000000815260040161007b91906101f6565b60405180910390fd5b610093816100f160201b60201c565b506001600260003373ffffffffffffffffffffffffffffffffffffffff1673ffffffffffffffffffffffffffffffffffffffff16815260200190815260200160002060006101000a81548160ff021916908315150217905550610211565b60008060009054906101000a900473ffffffffffffffffffffffffffffffffffffffff169050816000806101000a81548173ffffffffffffffffffffffffffffffffffffffff021916908373ffffffffffffffffffffffffffffffffffffffff1602179055508173ffffffffffffffffffffffffffffffffffffffff168173ffffffffffffffffffffffffffffffffffffffff167f8be0079c531659141344cd1fd0a4f28419497f9722a3daafe3b4186f6b6457e060405160405180910390a35050565b600073ffffffffffffffffffffffffffffffffffffffff82169050919050565b60006101e0826101b5565b9050919050565b6101f0816101d5565b82525050565b600060208201905061020b60008301846101e7565b92915050565b612ea2806102206000396000f3fe6080604052600436106100f35760003560e01c806389054ecb1161008a578063a269d10c11610059578063a269d10c146102ea578063a85c38ef14610306578063f2fde38b1461034a578063f51cf02f14610373576100f3565b806389054ecb146102445780638da5cb5b1461026d5780639072aa76146102985780639d07a8e9146102c1576100f3565b806348fd93d0116100c657806348fd93d0146101b25780634f5bee44146101db5780635aef573c14610204578063715018a61461022d576100f3565b80630ac5b2dc146100f857806322a1245014610121578063270ce1471461015e5780632a58b33014610187575b600080fd5b34801561010457600080fd5b5061011f600480360381019061011a9190611ef9565b61039c565b005b34801561012d57600080fd5b5061014860048036038101906101439190611f84565b6104d9565b6040516101559190611fcc565b60405180910390f35b34801561016a57600080fd5b506101856004803603810190610180919061212d565b6104f9565b005b34801561019357600080fd5b5061019c6106d8565b6040516101a99190612198565b60405180910390f35b3480156101be57600080fd5b506101d960048036038101906101d4919061212d565b6106de565b005b3480156101e757600080fd5b5061020260048036038101906101fd91906121df565b6108eb565b005b34801561021057600080fd5b5061022b6004803603810190610226919061212d565b61094e565b005b34801561023957600080fd5b50610242610bc9565b005b34801561025057600080fd5b5061026b6004803603810190610266919061221f565b610bdd565b005b34801561027957600080fd5b50610282610ee9565b60405161028f919061226e565b60405180910390f35b3480156102a457600080fd5b506102bf60048036038101906102ba919061212d565b610f12565b005b3480156102cd57600080fd5b506102e860048036038101906102e3919061212d565b6110f1565b005b61030460048036038101906102ff9190612289565b6112d0565b005b34801561031257600080fd5b5061032d60048036038101906103289190611ef9565b6117f8565b6040516103419897969594939291906123a9565b60405180910390f35b34801561035657600080fd5b50610371600480360381019061036c9190611f84565b6118e7565b005b34801561037f57600080fd5b5061039a6004803603810190610395919061212d565b61196d565b005b6103a4611b4c565b60006001600083815260200190815260200160002090508060040160149054906101000a900460ff1661040c576040517f08c379a000000000000000000000000000000000000000000000000000000000815260040161040390612484565b60405180910390fd5b8060040160159054906101000a900460ff161561045e576040517f08c379a0000000000000000000000000000000000000000000000000000000008152600401610455906124f0565b60405180910390fd5b60018160040160156101000a81548160ff02191690831515021790555060058160040160166101000a81548160ff021916908360078111156104a3576104a2612332565b5b0217905550817f7f33faedff6f8e586a85a7f9a59042d051c539b1246b97d467dc57134191dc2b60405160405180910390a25050565b60026020528060005260406000206000915054906101000a900460ff1681565b60006001600084815260200190815260200160002090508060040160149054906101000a900460ff1615610562576040517f08c379a00000000000000000000000000000000000000000000000000000000081526004016105599061255c565b60405180910390fd5b8060010160009054906101000a900473ffffffffffffffffffffffffffffffffffffffff1673ffffffffffffffffffffffffffffffffffffffff163373ffffffffffffffffffffffffffffffffffffffff16146105f4576040517f08c379a00000000000000000000000000000000000000000000000000000000081526004016105eb906125c8565b60405180910390fd5b6000600781111561060857610607612332565b5b8160040160169054906101000a900460ff16600781111561062c5761062b612332565b5b1461066c576040517f08c379a000000000000000000000000000000000000000000000000000000000815260040161066390612634565b60405180910390fd5b60018160040160166101000a81548160ff0219169083600781111561069457610693612332565b5b0217905550827f01e25b8d64dacbfffdad5f816e9969def49d67f01a91abf42d96ab6e804b437e33846040516106cb9291906126c2565b60405180910390a2505050565b60035481565b60006001600084815260200190815260200160002090508060040160149054906101000a900460ff1615610747576040517f08c379a000000000000000000000000000000000000000000000000000000000815260040161073e9061255c565b60405180910390fd5b8060000160009054906101000a900473ffffffffffffffffffffffffffffffffffffffff1673ffffffffffffffffffffffffffffffffffffffff163373ffffffffffffffffffffffffffffffffffffffff16146107d9576040517f08c379a00000000000000000000000000000000000000000000000000000000081526004016107d09061273e565b60405180910390fd5b600460078111156107ed576107ec612332565b5b8160040160169054906101000a900460ff16600781111561081157610810612332565b5b14610851576040517f08c379a000000000000000000000000000000000000000000000000000000000815260040161084890612634565b60405180910390fd5b60058160040160166101000a81548160ff0219169083600781111561087957610878612332565b5b0217905550827f47b789b69e436e07356441bfdcfa53ca266c7ee113dabbef5b41f7a074d0c5e033846040516108b09291906126c2565b60405180910390a26108e6838260010160009054906101000a900473ffffffffffffffffffffffffffffffffffffffff16611bd3565b505050565b6108f3611b4c565b80600260008473ffffffffffffffffffffffffffffffffffffffff1673ffffffffffffffffffffffffffffffffffffffff16815260200190815260200160002060006101000a81548160ff0219169083151502179055505050565b60006001600084815260200190815260200160002090508060040160149054906101000a900460ff16156109b7576040517f08c379a00000000000000000000000000000000000000000000000000000000081526004016109ae9061255c565b60405180910390fd5b8060000160009054906101000a900473ffffffffffffffffffffffffffffffffffffffff1673ffffffffffffffffffffffffffffffffffffffff163373ffffffffffffffffffffffffffffffffffffffff161480610a6457508060010160009054906101000a900473ffffffffffffffffffffffffffffffffffffffff1673ffffffffffffffffffffffffffffffffffffffff163373ffffffffffffffffffffffffffffffffffffffff16145b610aa3576040517f08c379a0000000000000000000000000000000000000000000000000000000008152600401610a9a906127aa565b60405180910390fd5b60056007811115610ab757610ab6612332565b5b8160040160169054906101000a900460ff166007811115610adb57610ada612332565b5b14158015610b1e5750600780811115610af757610af6612332565b5b8160040160169054906101000a900460ff166007811115610b1b57610b1a612332565b5b14155b610b5d576040517f08c379a0000000000000000000000000000000000000000000000000000000008152600401610b5490612816565b60405180910390fd5b60068160040160166101000a81548160ff02191690836007811115610b8557610b84612332565b5b0217905550827f4646ed0d1f2caee2a195a8f3d319f69e4ec38380a230313609833977654c2f1f3384604051610bbc9291906126c2565b60405180910390a2505050565b610bd1611b4c565b610bdb6000611de3565b565b600260003373ffffffffffffffffffffffffffffffffffffffff1673ffffffffffffffffffffffffffffffffffffffff16815260200190815260200160002060009054906101000a900460ff1680610c675750610c38610ee9565b73ffffffffffffffffffffffffffffffffffffffff163373ffffffffffffffffffffffffffffffffffffffff16145b610ca6576040517f08c379a0000000000000000000000000000000000000000000000000000000008152600401610c9d90612882565b60405180910390fd5b60006001600084815260200190815260200160002090508060040160149054906101000a900460ff1615610d0f576040517f08c379a0000000000000000000000000000000000000000000000000000000008152600401610d069061255c565b60405180910390fd5b60066007811115610d2357610d22612332565b5b8160040160169054906101000a900460ff166007811115610d4757610d46612332565b5b14610d87576040517f08c379a0000000000000000000000000000000000000000000000000000000008152600401610d7e906128ee565b60405180910390fd5b8060000160009054906101000a900473ffffffffffffffffffffffffffffffffffffffff1673ffffffffffffffffffffffffffffffffffffffff168273ffffffffffffffffffffffffffffffffffffffff161480610e3457508060010160009054906101000a900473ffffffffffffffffffffffffffffffffffffffff1673ffffffffffffffffffffffffffffffffffffffff168273ffffffffffffffffffffffffffffffffffffffff16145b610e73576040517f08c379a0000000000000000000000000000000000000000000000000000000008152600401610e6a9061295a565b60405180910390fd5b60078160040160166101000a81548160ff02191690836007811115610e9b57610e9a612332565b5b0217905550827f71ad760f6b0fe9b49225f9fec30f166f2005d48e8b93a3225f5464b7e6acc5d83384604051610ed292919061297a565b60405180910390a2610ee48383611bd3565b505050565b60008060009054906101000a900473ffffffffffffffffffffffffffffffffffffffff16905090565b60006001600084815260200190815260200160002090508060040160149054906101000a900460ff1615610f7b576040517f08c379a0000000000000000000000000000000000000000000000000000000008152600401610f729061255c565b60405180910390fd5b8060020160009054906101000a900473ffffffffffffffffffffffffffffffffffffffff1673ffffffffffffffffffffffffffffffffffffffff163373ffffffffffffffffffffffffffffffffffffffff161461100d576040517f08c379a0000000000000000000000000000000000000000000000000000000008152600401611004906129ef565b60405180910390fd5b6002600781111561102157611020612332565b5b8160040160169054906101000a900460ff16600781111561104557611044612332565b5b14611085576040517f08c379a000000000000000000000000000000000000000000000000000000000815260040161107c90612634565b60405180910390fd5b60038160040160166101000a81548160ff021916908360078111156110ad576110ac612332565b5b0217905550827fd6dc334dc9e178770f0ffbc1a0e43ecef1e4661587b924a072557724cb15c12c33846040516110e49291906126c2565b60405180910390a2505050565b60006001600084815260200190815260200160002090508060040160149054906101000a900460ff161561115a576040517f08c379a00000000000000000000000000000000000000000000000000000000081526004016111519061255c565b60405180910390fd5b8060010160009054906101000a900473ffffffffffffffffffffffffffffffffffffffff1673ffffffffffffffffffffffffffffffffffffffff163373ffffffffffffffffffffffffffffffffffffffff16146111ec576040517f08c379a00000000000000000000000000000000000000000000000000000000081526004016111e3906125c8565b60405180910390fd5b60016007811115611200576111ff612332565b5b8160040160169054906101000a900460ff16600781111561122457611223612332565b5b14611264576040517f08c379a000000000000000000000000000000000000000000000000000000000815260040161125b90612634565b60405180910390fd5b60028160040160166101000a81548160ff0219169083600781111561128c5761128b612332565b5b0217905550827fd58bce8a42d5f16d911da7a59887fb284aea98cddb81eba85d7e1aefb9d79a5833846040516112c39291906126c2565b60405180910390a2505050565b60008311611313576040517f08c379a000000000000000000000000000000000000000000000000000000000815260040161130a90612a5b565b60405180910390fd5b600073ffffffffffffffffffffffffffffffffffffffff168673ffffffffffffffffffffffffffffffffffffffff161415801561137d5750600073ffffffffffffffffffffffffffffffffffffffff168573ffffffffffffffffffffffffffffffffffffffff1614155b6113bc576040517f08c379a00000000000000000000000000000000000000000000000000000000081526004016113b390612ac7565b60405180910390fd5b600073ffffffffffffffffffffffffffffffffffffffff168473ffffffffffffffffffffffffffffffffffffffff160361143757823414611432576040517f08c379a000000000000000000000000000000000000000000000000000000000815260040161142990612b33565b60405180910390fd5b61153a565b6000341461147a576040517f08c379a000000000000000000000000000000000000000000000000000000000815260040161147190612b9f565b60405180910390fd5b8373ffffffffffffffffffffffffffffffffffffffff166323b872dd3330866040518463ffffffff1660e01b81526004016114b793929190612bbf565b6020604051808303816000875af11580156114d6573d6000803e3d6000fd5b505050506040513d601f19601f820116820180604052508101906114fa9190612c0b565b611539576040517f08c379a000000000000000000000000000000000000000000000000000000000815260040161153090612c84565b60405180910390fd5b5b60006003600081548092919061154f90612cd3565b9190505590506040518061010001604052803373ffffffffffffffffffffffffffffffffffffffff1681526020018873ffffffffffffffffffffffffffffffffffffffff1681526020018773ffffffffffffffffffffffffffffffffffffffff1681526020018581526020018673ffffffffffffffffffffffffffffffffffffffff1681526020018315158152602001600015158152602001600060078111156115fc576115fb612332565b5b8152506001600083815260200190815260200160002060008201518160000160006101000a81548173ffffffffffffffffffffffffffffffffffffffff021916908373ffffffffffffffffffffffffffffffffffffffff16021790555060208201518160010160006101000a81548173ffffffffffffffffffffffffffffffffffffffff021916908373ffffffffffffffffffffffffffffffffffffffff16021790555060408201518160020160006101000a81548173ffffffffffffffffffffffffffffffffffffffff021916908373ffffffffffffffffffffffffffffffffffffffff1602179055506060820151816003015560808201518160040160006101000a81548173ffffffffffffffffffffffffffffffffffffffff021916908373ffffffffffffffffffffffffffffffffffffffff16021790555060a08201518160040160146101000a81548160ff02191690831515021790555060c08201518160040160156101000a81548160ff02191690831515021790555060e08201518160040160166101000a81548160ff021916908360078111156117a3576117a2612332565b5b0217905550905050807f890827bf64e81f1a5005c99e2d97b4a1146cf2fba7f32dac91ee7c8de412fd34338989898989896040516117e79796959493929190612d1b565b60405180910390a250505050505050565b60016020528060005260406000206000915090508060000160009054906101000a900473ffffffffffffffffffffffffffffffffffffffff16908060010160009054906101000a900473ffffffffffffffffffffffffffffffffffffffff16908060020160009054906101000a900473ffffffffffffffffffffffffffffffffffffffff16908060030154908060040160009054906101000a900473ffffffffffffffffffffffffffffffffffffffff16908060040160149054906101000a900460ff16908060040160159054906101000a900460ff16908060040160169054906101000a900460ff16905088565b6118ef611b4c565b600073ffffffffffffffffffffffffffffffffffffffff168173ffffffffffffffffffffffffffffffffffffffff16036119615760006040517f1e4fbdf7000000000000000000000000000000000000000000000000000000008152600401611958919061226e565b60405180910390fd5b61196a81611de3565b50565b60006001600084815260200190815260200160002090508060040160149054906101000a900460ff16156119d6576040517f08c379a00000000000000000000000000000000000000000000000000000000081526004016119cd9061255c565b60405180910390fd5b8060010160009054906101000a900473ffffffffffffffffffffffffffffffffffffffff1673ffffffffffffffffffffffffffffffffffffffff163373ffffffffffffffffffffffffffffffffffffffff1614611a68576040517f08c379a0000000000000000000000000000000000000000000000000000000008152600401611a5f906125c8565b60405180910390fd5b60036007811115611a7c57611a7b612332565b5b8160040160169054906101000a900460ff166007811115611aa057611a9f612332565b5b14611ae0576040517f08c379a0000000000000000000000000000000000000000000000000000000008152600401611ad790612634565b60405180910390fd5b60048160040160166101000a81548160ff02191690836007811115611b0857611b07612332565b5b0217905550827fd378c60d95714ce447ac249ecb78da3cd4b05756d5eb5addc82260724428924b3384604051611b3f9291906126c2565b60405180910390a2505050565b611b54611ea7565b73ffffffffffffffffffffffffffffffffffffffff16611b72610ee9565b73ffffffffffffffffffffffffffffffffffffffff1614611bd157611b95611ea7565b6040517f118cdaa7000000000000000000000000000000000000000000000000000000008152600401611bc8919061226e565b60405180910390fd5b565b6000600160008481526020019081526020016000209050600073ffffffffffffffffffffffffffffffffffffffff168160040160009054906101000a900473ffffffffffffffffffffffffffffffffffffffff1673ffffffffffffffffffffffffffffffffffffffff1603611cf85760008273ffffffffffffffffffffffffffffffffffffffff168260030154604051611c6c90612dc2565b60006040518083038185875af1925050503d8060008114611ca9576040519150601f19603f3d011682016040523d82523d6000602084013e611cae565b606091505b5050905080611cf2576040517f08c379a0000000000000000000000000000000000000000000000000000000008152600401611ce990612e23565b60405180910390fd5b50611dde565b8060040160009054906101000a900473ffffffffffffffffffffffffffffffffffffffff1673ffffffffffffffffffffffffffffffffffffffff1663a9059cbb8383600301546040518363ffffffff1660e01b8152600401611d5b929190612e43565b6020604051808303816000875af1158015611d7a573d6000803e3d6000fd5b505050506040513d601f19601f82011682018060405250810190611d9e9190612c0b565b611ddd576040517f08c379a0000000000000000000000000000000000000000000000000000000008152600401611dd490612c84565b60405180910390fd5b5b505050565b60008060009054906101000a900473ffffffffffffffffffffffffffffffffffffffff169050816000806101000a81548173ffffffffffffffffffffffffffffffffffffffff021916908373ffffffffffffffffffffffffffffffffffffffff1602179055508173ffffffffffffffffffffffffffffffffffffffff168173ffffffffffffffffffffffffffffffffffffffff167f8be0079c531659141344cd1fd0a4f28419497f9722a3daafe3b4186f6b6457e060405160405180910390a35050565b600033905090565b6000604051905090565b600080fd5b600080fd5b6000819050919050565b611ed681611ec3565b8114611ee157600080fd5b50565b600081359050611ef381611ecd565b92915050565b600060208284031215611f0f57611f0e611eb9565b5b6000611f1d84828501611ee4565b91505092915050565b600073ffffffffffffffffffffffffffffffffffffffff82169050919050565b6000611f5182611f26565b9050919050565b611f6181611f46565b8114611f6c57600080fd5b50565b600081359050611f7e81611f58565b92915050565b600060208284031215611f9a57611f99611eb9565b5b6000611fa884828501611f6f565b91505092915050565b60008115159050919050565b611fc681611fb1565b82525050565b6000602082019050611fe16000830184611fbd565b92915050565b600080fd5b600080fd5b6000601f19601f8301169050919050565b7f4e487b7100000000000000000000000000000000000000000000000000000000600052604160045260246000fd5b61203a82611ff1565b810181811067ffffffffffffffff8211171561205957612058612002565b5b80604052505050565b600061206c611eaf565b90506120788282612031565b919050565b600067ffffffffffffffff82111561209857612097612002565b5b6120a182611ff1565b9050602081019050919050565b82818337600083830152505050565b60006120d06120cb8461207d565b612062565b9050828152602081018484840111156120ec576120eb611fec565b5b6120f78482856120ae565b509392505050565b600082601f83011261211457612113611fe7565b5b81356121248482602086016120bd565b91505092915050565b6000806040838503121561214457612143611eb9565b5b600061215285828601611ee4565b925050602083013567ffffffffffffffff81111561217357612172611ebe565b5b61217f858286016120ff565b9150509250929050565b61219281611ec3565b82525050565b60006020820190506121ad6000830184612189565b92915050565b6121bc81611fb1565b81146121c757600080fd5b50565b6000813590506121d9816121b3565b92915050565b600080604083850312156121f6576121f5611eb9565b5b600061220485828601611f6f565b9250506020612215858286016121ca565b9150509250929050565b6000806040838503121561223657612235611eb9565b5b600061224485828601611ee4565b925050602061225585828601611f6f565b9150509250929050565b61226881611f46565b82525050565b6000602082019050612283600083018461225f565b92915050565b60008060008060008060c087890312156122a6576122a5611eb9565b5b60006122b489828a01611f6f565b96505060206122c589828a01611f6f565b95505060406122d689828a01611f6f565b94505060606122e789828a01611ee4565b935050608087013567ffffffffffffffff81111561230857612307611ebe565b5b61231489828a016120ff565b92505060a061232589828a016121ca565b9150509295509295509295565b7f4e487b7100000000000000000000000000000000000000000000000000000000600052602160045260246000fd5b6008811061237257612371612332565b5b50565b600081905061238382612361565b919050565b600061239382612375565b9050919050565b6123a381612388565b82525050565b6000610100820190506123bf600083018b61225f565b6123cc602083018a61225f565b6123d9604083018961225f565b6123e66060830188612189565b6123f3608083018761225f565b61240060a0830186611fbd565b61240d60c0830185611fbd565b61241a60e083018461239a565b9998505050505050505050565b600082825260208201905092915050565b7f4e6f74206d756c7469636861696e000000000000000000000000000000000000600082015250565b600061246e600e83612427565b915061247982612438565b602082019050919050565b6000602082019050818103600083015261249d81612461565b9050919050565b7f416c726561647920627269646765640000000000000000000000000000000000600082015250565b60006124da600f83612427565b91506124e5826124a4565b602082019050919050565b60006020820190508181036000830152612509816124cd565b9050919050565b7f4d7573742065786563757465206f6e204d6972726f7220636861696e00000000600082015250565b6000612546601c83612427565b915061255182612510565b602082019050919050565b6000602082019050818103600083015261257581612539565b9050919050565b7f4f6e6c792073656c6c6572000000000000000000000000000000000000000000600082015250565b60006125b2600b83612427565b91506125bd8261257c565b602082019050919050565b600060208201905081810360008301526125e1816125a5565b9050919050565b7f496e76616c696420737461747573000000000000000000000000000000000000600082015250565b600061261e600e83612427565b9150612629826125e8565b602082019050919050565b6000602082019050818103600083015261264d81612611565b9050919050565b600081519050919050565b60005b8381101561267d578082015181840152602081019050612662565b60008484015250505050565b600061269482612654565b61269e8185612427565b93506126ae81856020860161265f565b6126b781611ff1565b840191505092915050565b60006040820190506126d7600083018561225f565b81810360208301526126e98184612689565b90509392505050565b7f4f6e6c7920627579657200000000000000000000000000000000000000000000600082015250565b6000612728600a83612427565b9150612733826126f2565b602082019050919050565b600060208201905081810360008301526127578161271b565b9050919050565b7f4f6e6c79206275796572206f722073656c6c6572000000000000000000000000600082015250565b6000612794601483612427565b915061279f8261275e565b602082019050919050565b600060208201905081810360008301526127c381612787565b9050919050565b7f416c72656164792066696e697368656400000000000000000000000000000000600082015250565b6000612800601083612427565b915061280b826127ca565b602082019050919050565b6000602082019050818103600083015261282f816127f3565b9050919050565b7f4e6f7420617574686f72697a6564000000000000000000000000000000000000600082015250565b600061286c600e83612427565b915061287782612836565b602082019050919050565b6000602082019050818103600083015261289b8161285f565b9050919050565b7f4e6f742064697370757465640000000000000000000000000000000000000000600082015250565b60006128d8600c83612427565b91506128e3826128a2565b602082019050919050565b60006020820190508181036000830152612907816128cb565b9050919050565b7f496e76616c69642077696e6e6572000000000000000000000000000000000000600082015250565b6000612944600e83612427565b915061294f8261290e565b602082019050919050565b6000602082019050818103600083015261297381612937565b9050919050565b600060408201905061298f600083018561225f565b61299c602083018461225f565b9392505050565b7f4f6e6c79206167656e7400000000000000000000000000000000000000000000600082015250565b60006129d9600a83612427565b91506129e4826129a3565b602082019050919050565b60006020820190508181036000830152612a08816129cc565b9050919050565b7f416d6f756e74206d757374206265203e20300000000000000000000000000000600082015250565b6000612a45601283612427565b9150612a5082612a0f565b602082019050919050565b60006020820190508181036000830152612a7481612a38565b9050919050565b7f496e76616c696420616464726573736573000000000000000000000000000000600082015250565b6000612ab1601183612427565b9150612abc82612a7b565b602082019050919050565b60006020820190508181036000830152612ae081612aa4565b9050919050565b7f4554482073656e7420646f6573206e6f74206d6174636820616d6f756e740000600082015250565b6000612b1d601e83612427565b9150612b2882612ae7565b602082019050919050565b60006020820190508181036000830152612b4c81612b10565b9050919050565b7f43616e6e6f742073656e64204554482077697468204552433230206f72646572600082015250565b6000612b89602083612427565b9150612b9482612b53565b602082019050919050565b60006020820190508181036000830152612bb881612b7c565b9050919050565b6000606082019050612bd4600083018661225f565b612be1602083018561225f565b612bee6040830184612189565b949350505050565b600081519050612c05816121b3565b92915050565b600060208284031215612c2157612c20611eb9565b5b6000612c2f84828501612bf6565b91505092915050565b7f55534454207472616e73666572206661696c6564000000000000000000000000600082015250565b6000612c6e601483612427565b9150612c7982612c38565b602082019050919050565b60006020820190508181036000830152612c9d81612c61565b9050919050565b7f4e487b7100000000000000000000000000000000000000000000000000000000600052601160045260246000fd5b6000612cde82611ec3565b91507fffffffffffffffffffffffffffffffffffffffffffffffffffffffffffffffff8203612d1057612d0f612ca4565b5b600182019050919050565b600060e082019050612d30600083018a61225f565b612d3d602083018961225f565b612d4a604083018861225f565b612d57606083018761225f565b612d646080830186612189565b81810360a0830152612d768185612689565b9050612d8560c0830184611fbd565b98975050505050505050565b600081905092915050565b50565b6000612dac600083612d91565b9150612db782612d9c565b600082019050919050565b6000612dcd82612d9f565b9150819050919050565b7f455448207472616e73666572206661696c656400000000000000000000000000600082015250565b6000612e0d601383612427565b9150612e1882612dd7565b602082019050919050565b60006020820190508181036000830152612e3c81612e00565b9050919050565b6000604082019050612e58600083018561225f565b612e656020830184612189565b939250505056fea264697066735822122099ca1c4eeee2d67ce2181ac7f38096cec7a5da9c5e0689aad895569244c25cd564736f6c634300081c0033",
  "linkReferences": {},
  "deployedLinkReferences": {}
}