{
  "_format": "hh-sol-artifact-1",
  "contractName": "EscrowSource",
  "sourceName": "static/contract/EscrowSource.sol",
  "abi": [
    {
      "inputs": [
        {
          "internalType": "address",
          "name": "_usdt",
          "type": "address"
        }
      ],
      "stateMutability": "nonpayable",
      "type": "constructor"
    },
    {
      "inputs": [
        {
          "internalType": "address",
          "name": "owner",
          "type": "address"
        }
      ],
      "name": "OwnableInvalidOwner",
      "type": "error"
    },
    {
      "inputs": [
        {
          "internalType": "address",
          "name": "account",
          "type": "address"
        }
      ],
      "name": "OwnableUnauthorizedAccount",
      "type": "error"
    },
    {
      "anonymous": false,
      "inputs": [
        {
          "indexed": true,
          "internalType": "uint256",
          "name": "id",
          "type": "uint256"
        },
        {
          "indexed": false,
          "internalType": "address",
          "name": "agent",
          "type": "address"
        }
      ],
      "name": "AgentConfirmed",
      "type": "event"
    },
    {
      "anonymous": false,
      "inputs": [
        {
          "indexed": true,
          "internalType": "uint256",
          "name": "id",
          "type": "uint256"
        }
      ],
      "name": "EscrowBridged",
      "type": "event"
    },
    {
      "anonymous": false,
      "inputs": [
        {
          "indexed": true,
          "internalType": "uint256",
          "name": "id",
          "type": "uint256"
        },
        {
          "indexed": false,
          "internalType": "address",
          "name": "buyer",
          "type": "address"
        },
        {
          "indexed": false,
          "internalType": "address",
          "name": "seller",
          "type": "address"
        },
        {
          "indexed": false,
          "internalType": "address",
          "name": "agent",
          "type": "address"
        },
        {
          "indexed": false,
          "internalType": "uint256",
          "name": "amount",
          "type": "uint256"
        },
        {
          "indexed": false,
          "internalType": "string",
          "name": "ipfsHash",
          "type": "string"
        }
      ],
      "name": "EscrowFunded",
      "type": "event"
    },
    {
      "anonymous": false,
      "inputs": [
        {
          "indexed": true,
          "internalType": "address",
          "name": "previousOwner",
          "type": "address"
        },
        {
          "indexed": true,
          "internalType": "address",
          "name": "newOwner",
          "type": "address"
        }
      ],
      "name": "OwnershipTransferred",
      "type": "event"
    },
    {
      "inputs": [
        {
          "internalType": "uint256",
          "name": "_id",
          "type": "uint256"
        }
      ],
      "name": "confirmAgent",
      "outputs": [],
      "stateMutability": "nonpayable",
      "type": "function"
    },
    {
      "inputs": [
        {
          "internalType": "address",
          "name": "_seller",
          "type": "address"
        },
        {
          "internalType": "address",
          "name": "_agent",
          "type": "address"
        },
        {
          "internalType": "uint256",
          "name": "_amount",
          "type": "uint256"
        },
        {
          "internalType": "string",
          "name": "_ipfsHash",
          "type": "string"
        }
      ],
      "name": "createEscrow",
      "outputs": [],
      "stateMutability": "nonpayable",
      "type": "function"
    },
    {
      "inputs": [
        {
          "internalType": "uint256",
          "name": "",
          "type": "uint256"
        }
      ],
      "name": "escrows",
      "outputs": [
        {
          "internalType": "address",
          "name": "buyer",
          "type": "address"
        },
        {
          "internalType": "address",
          "name": "seller",
          "type": "address"
        },
        {
          "internalType": "address",
          "name": "agent",
          "type": "address"
        },
        {
          "internalType": "uint256",
          "name": "amount",
          "type": "uint256"
        },
        {
          "internalType": "string",
          "name": "ipfsHash",
          "type": "string"
        },
        {
          "internalType": "bool",
          "name": "agentConfirmed",
          "type": "bool"
        },
        {
          "internalType": "bool",
          "name": "isBridged",
          "type": "bool"
        }
      ],
      "stateMutability": "view",
      "type": "function"
    },
    {
      "inputs": [],
      "name": "nextEscrowId",
      "outputs": [
        {
          "internalType": "uint256",
          "name": "",
          "type": "uint256"
        }
      ],
      "stateMutability": "view",
      "type": "function"
    },
    {
      "inputs": [],
      "name": "owner",
      "outputs": [
        {
          "internalType": "address",
          "name": "",
          "type": "address"
        }
      ],
      "stateMutability": "view",
      "type": "function"
    },
    {
      "inputs": [
        {
          "internalType": "uint256",
          "name": "_id",
          "type": "uint256"
        }
      ],
      "name": "relayerMarkBridged",
      "outputs": [],
      "stateMutability": "nonpayable",
      "type": "function"
    },
    {
      "inputs": [],
      "name": "renounceOwnership",
      "outputs": [],
      "stateMutability": "nonpayable",
      "type": "function"
    },
    {
      "inputs": [
        {
          "internalType": "address",
          "name": "newOwner",
          "type": "address"
        }
      ],
      "name": "transferOwnership",
      "outputs": [],
      "stateMutability": "nonpayable",
      "type": "function"
    },
    {
      "inputs": [],
      "name": "usdt",
      "outputs": [
        {
          "internalType": "contract IERC20",
          "name": "",
          "type": "address"
        }
      ],
      "stateMutability": "view",
      "type": "function"
    }
  ],
  "bytecode": "0x608060405234801561001057600080fd5b5060405161184038038061184083398181016040528101906100329190610223565b33600073ffffffffffffffffffffffffffffffffffffffff168173ffffffffffffffffffffffffffffffffffffffff16036100a55760006040517f1e4fbdf700000000000000000000000000000000000000000000000000000000815260040161009c919061025f565b60405180910390fd5b6100b4816100fc60201b60201c565b5080600160006101000a81548173ffffffffffffffffffffffffffffffffffffffff021916908373ffffffffffffffffffffffffffffffffffffffff1602179055505061027a565b60008060009054906101000a900473ffffffffffffffffffffffffffffffffffffffff169050816000806101000a81548173ffffffffffffffffffffffffffffffffffffffff021916908373ffffffffffffffffffffffffffffffffffffffff1602179055508173ffffffffffffffffffffffffffffffffffffffff168173ffffffffffffffffffffffffffffffffffffffff167f8be0079c531659141344cd1fd0a4f28419497f9722a3daafe3b4186f6b6457e060405160405180910390a35050565b600080fd5b600073ffffffffffffffffffffffffffffffffffffffff82169050919050565b60006101f0826101c5565b9050919050565b610200816101e5565b811461020b57600080fd5b50565b60008151905061021d816101f7565b92915050565b600060208284031215610239576102386101c0565b5b60006102478482850161020e565b91505092915050565b610259816101e5565b82525050565b60006020820190506102746000830184610250565b92915050565b6115b7806102896000396000f3fe608060405234801561001057600080fd5b50600436106100935760003560e01c80637be87b9e116100665780637be87b9e1461011257806389cb29dd1461012e5780638da5cb5b1461014c578063c91db47f1461016a578063f2fde38b1461018657610093565b8063012f52ee146100985780630ac5b2dc146100ce5780632f48ab7d146100ea578063715018a614610108575b600080fd5b6100b260048036038101906100ad9190610ad1565b6101a2565b6040516100c59796959493929190610bf9565b60405180910390f35b6100e860048036038101906100e39190610ad1565b6102e6565b005b6100f26103a5565b6040516100ff9190610cce565b60405180910390f35b6101106103cb565b005b61012c60048036038101906101279190610e4a565b6103df565b005b61013661072b565b6040516101439190610ecd565b60405180910390f35b610154610731565b6040516101619190610ee8565b60405180910390f35b610184600480360381019061017f9190610ad1565b61075a565b005b6101a0600480360381019061019b9190610f03565b6108ae565b005b60026020528060005260406000206000915090508060000160009054906101000a900473ffffffffffffffffffffffffffffffffffffffff16908060010160009054906101000a900473ffffffffffffffffffffffffffffffffffffffff16908060020160009054906101000a900473ffffffffffffffffffffffffffffffffffffffff169080600301549080600401805461023d90610f5f565b80601f016020809104026020016040519081016040528092919081815260200182805461026990610f5f565b80156102b65780601f1061028b576101008083540402835291602001916102b6565b820191906000526020600020905b81548152906001019060200180831161029957829003601f168201915b5050505050908060050160009054906101000a900460ff16908060050160019054906101000a900460ff16905087565b6102ee610934565b60006002600083815260200190815260200160002090508060050160019054906101000a900460ff1615610357576040517f08c379a000000000000000000000000000000000000000000000000000000000815260040161034e90610fdc565b60405180910390fd5b60018160050160016101000a81548160ff021916908315150217905550817f68879e0f722e182235b11c7105464fd52fff00cbe396982b0ac3e4a4d0f57e8e60405160405180910390a25050565b600160009054906101000a900473ffffffffffffffffffffffffffffffffffffffff1681565b6103d3610934565b6103dd60006109bb565b565b60008211610422576040517f08c379a000000000000000000000000000000000000000000000000000000000815260040161041990611048565b60405180910390fd5b600160009054906101000a900473ffffffffffffffffffffffffffffffffffffffff1673ffffffffffffffffffffffffffffffffffffffff166323b872dd3330856040518463ffffffff1660e01b815260040161048193929190611068565b6020604051808303816000875af11580156104a0573d6000803e3d6000fd5b505050506040513d601f19601f820116820180604052508101906104c491906110cb565b610503576040517f08c379a00000000000000000000000000000000000000000000000000000000081526004016104fa90611144565b60405180910390fd5b60006003600081548092919061051890611193565b9190505590506040518060e001604052803373ffffffffffffffffffffffffffffffffffffffff1681526020018673ffffffffffffffffffffffffffffffffffffffff1681526020018573ffffffffffffffffffffffffffffffffffffffff168152602001848152602001838152602001600015158152602001600015158152506002600083815260200190815260200160002060008201518160000160006101000a81548173ffffffffffffffffffffffffffffffffffffffff021916908373ffffffffffffffffffffffffffffffffffffffff16021790555060208201518160010160006101000a81548173ffffffffffffffffffffffffffffffffffffffff021916908373ffffffffffffffffffffffffffffffffffffffff16021790555060408201518160020160006101000a81548173ffffffffffffffffffffffffffffffffffffffff021916908373ffffffffffffffffffffffffffffffffffffffff1602179055506060820151816003015560808201518160040190816106a0919061137d565b5060a08201518160050160006101000a81548160ff02191690831515021790555060c08201518160050160016101000a81548160ff021916908315150217905550905050807f02926e8bf521c038878b10870ceacaafa26067925426d75d05807282f3f55514338787878760405161071c95949392919061144f565b60405180910390a25050505050565b60035481565b60008060009054906101000a900473ffffffffffffffffffffffffffffffffffffffff16905090565b60006002600083815260200190815260200160002090508060020160009054906101000a900473ffffffffffffffffffffffffffffffffffffffff1673ffffffffffffffffffffffffffffffffffffffff163373ffffffffffffffffffffffffffffffffffffffff1614610803576040517f08c379a00000000000000000000000000000000000000000000000000000000081526004016107fa906114f5565b60405180910390fd5b8060050160009054906101000a900460ff1615610855576040517f08c379a000000000000000000000000000000000000000000000000000000000815260040161084c90611561565b60405180910390fd5b60018160050160006101000a81548160ff021916908315150217905550817fa92c902ebe85d5dc27e01c88c90be04d45a6380075c7b51a9a4985213c2193be336040516108a29190610ee8565b60405180910390a25050565b6108b6610934565b600073ffffffffffffffffffffffffffffffffffffffff168173ffffffffffffffffffffffffffffffffffffffff16036109285760006040517f1e4fbdf700000000000000000000000000000000000000000000000000000000815260040161091f9190610ee8565b60405180910390fd5b610931816109bb565b50565b61093c610a7f565b73ffffffffffffffffffffffffffffffffffffffff1661095a610731565b73ffffffffffffffffffffffffffffffffffffffff16146109b95761097d610a7f565b6040517f118cdaa70000000000000000000000000000000000000000000000000000000081526004016109b09190610ee8565b60405180910390fd5b565b60008060009054906101000a900473ffffffffffffffffffffffffffffffffffffffff169050816000806101000a81548173ffffffffffffffffffffffffffffffffffffffff021916908373ffffffffffffffffffffffffffffffffffffffff1602179055508173ffffffffffffffffffffffffffffffffffffffff168173ffffffffffffffffffffffffffffffffffffffff167f8be0079c531659141344cd1fd0a4f28419497f9722a3daafe3b4186f6b6457e060405160405180910390a35050565b600033905090565b6000604051905090565b600080fd5b600080fd5b6000819050919050565b610aae81610a9b565b8114610ab957600080fd5b50565b600081359050610acb81610aa5565b92915050565b600060208284031215610ae757610ae6610a91565b5b6000610af584828501610abc565b91505092915050565b600073ffffffffffffffffffffffffffffffffffffffff82169050919050565b6000610b2982610afe565b9050919050565b610b3981610b1e565b82525050565b610b4881610a9b565b82525050565b600081519050919050565b600082825260208201905092915050565b60005b83811015610b88578082015181840152602081019050610b6d565b60008484015250505050565b6000601f19601f8301169050919050565b6000610bb082610b4e565b610bba8185610b59565b9350610bca818560208601610b6a565b610bd381610b94565b840191505092915050565b60008115159050919050565b610bf381610bde565b82525050565b600060e082019050610c0e600083018a610b30565b610c1b6020830189610b30565b610c286040830188610b30565b610c356060830187610b3f565b8181036080830152610c478186610ba5565b9050610c5660a0830185610bea565b610c6360c0830184610bea565b98975050505050505050565b6000819050919050565b6000610c94610c8f610c8a84610afe565b610c6f565b610afe565b9050919050565b6000610ca682610c79565b9050919050565b6000610cb882610c9b565b9050919050565b610cc881610cad565b82525050565b6000602082019050610ce36000830184610cbf565b92915050565b610cf281610b1e565b8114610cfd57600080fd5b50565b600081359050610d0f81610ce9565b92915050565b600080fd5b600080fd5b7f4e487b7100000000000000000000000000000000000000000000000000000000600052604160045260246000fd5b610d5782610b94565b810181811067ffffffffffffffff82111715610d7657610d75610d1f565b5b80604052505050565b6000610d89610a87565b9050610d958282610d4e565b919050565b600067ffffffffffffffff821115610db557610db4610d1f565b5b610dbe82610b94565b9050602081019050919050565b82818337600083830152505050565b6000610ded610de884610d9a565b610d7f565b905082815260208101848484011115610e0957610e08610d1a565b5b610e14848285610dcb565b509392505050565b600082601f830112610e3157610e30610d15565b5b8135610e41848260208601610dda565b91505092915050565b60008060008060808587031215610e6457610e63610a91565b5b6000610e7287828801610d00565b9450506020610e8387828801610d00565b9350506040610e9487828801610abc565b925050606085013567ffffffffffffffff811115610eb557610eb4610a96565b5b610ec187828801610e1c565b91505092959194509250565b6000602082019050610ee26000830184610b3f565b92915050565b6000602082019050610efd6000830184610b30565b92915050565b600060208284031215610f1957610f18610a91565b5b6000610f2784828501610d00565b91505092915050565b7f4e487b7100000000000000000000000000000000000000000000000000000000600052602260045260246000fd5b60006002820490506001821680610f7757607f821691505b602082108103610f8a57610f89610f30565b5b50919050565b7f416c726561647920627269646765640000000000000000000000000000000000600082015250565b6000610fc6600f83610b59565b9150610fd182610f90565b602082019050919050565b60006020820190508181036000830152610ff581610fb9565b9050919050565b7f416d6f756e74206d757374206265203e20300000000000000000000000000000600082015250565b6000611032601283610b59565b915061103d82610ffc565b602082019050919050565b6000602082019050818103600083015261106181611025565b9050919050565b600060608201905061107d6000830186610b30565b61108a6020830185610b30565b6110976040830184610b3f565b949350505050565b6110a881610bde565b81146110b357600080fd5b50565b6000815190506110c58161109f565b92915050565b6000602082840312156110e1576110e0610a91565b5b60006110ef848285016110b6565b91505092915050565b7f55534454207472616e73666572206661696c6564000000000000000000000000600082015250565b600061112e601483610b59565b9150611139826110f8565b602082019050919050565b6000602082019050818103600083015261115d81611121565b9050919050565b7f4e487b7100000000000000000000000000000000000000000000000000000000600052601160045260246000fd5b600061119e82610a9b565b91507fffffffffffffffffffffffffffffffffffffffffffffffffffffffffffffffff82036111d0576111cf611164565b5b600182019050919050565b60008190508160005260206000209050919050565b60006020601f8301049050919050565b600082821b905092915050565b60006008830261123d7fffffffffffffffffffffffffffffffffffffffffffffffffffffffffffffffff82611200565b6112478683611200565b95508019841693508086168417925050509392505050565b600061127a61127561127084610a9b565b610c6f565b610a9b565b9050919050565b6000819050919050565b6112948361125f565b6112a86112a082611281565b84845461120d565b825550505050565b600090565b6112bd6112b0565b6112c881848461128b565b505050565b5b818110156112ec576112e16000826112b5565b6001810190506112ce565b5050565b601f82111561133157611302816111db565b61130b846111f0565b8101602085101561131a578190505b61132e611326856111f0565b8301826112cd565b50505b505050565b600082821c905092915050565b600061135460001984600802611336565b1980831691505092915050565b600061136d8383611343565b9150826002028217905092915050565b61138682610b4e565b67ffffffffffffffff81111561139f5761139e610d1f565b5b6113a98254610f5f565b6113b48282856112f0565b600060209050601f8311600181146113e757600084156113d5578287015190505b6113df8582611361565b865550611447565b601f1984166113f5866111db565b60005b8281101561141d578489015182556001820191506020850194506020810190506113f8565b8683101561143a5784890151611436601f891682611343565b8355505b6001600288020188555050505b505050505050565b600060a0820190506114646000830188610b30565b6114716020830187610b30565b61147e6040830186610b30565b61148b6060830185610b3f565b818103608083015261149d8184610ba5565b90509695505050505050565b7f4f6e6c79204167656e742063616e20636f6e6669726d00000000000000000000600082015250565b60006114df601683610b59565b91506114ea826114a9565b602082019050919050565b6000602082019050818103600083015261150e816114d2565b9050919050565b7f416c726561647920636f6e6669726d6564000000000000000000000000000000600082015250565b600061154b601183610b59565b915061155682611515565b602082019050919050565b6000602082019050818103600083015261157a8161153e565b905091905056fea264697066735822122041de8f45e10fe9cd506d02086660be30c6dab5941a9da4bd154d36db9f1ee6a164736f6c634300081c0033",
  "linkReferences": {},
  "deployedLinkReferences": {}
}